{
  "contractName": "UmblNFT",
  "abi": [
    {
      "inputs": [
        {
          "internalType": "string",
          "name": "baseURI",
          "type": "string"
        }
      ],
      "stateMutability": "nonpayable",
      "type": "constructor"
    },
    {
      "anonymous": false,
      "inputs": [
        {
          "indexed": true,
          "internalType": "address",
          "name": "owner",
          "type": "address"
        },
        {
          "indexed": true,
          "internalType": "address",
          "name": "approved",
          "type": "address"
        },
        {
          "indexed": true,
          "internalType": "uint256",
          "name": "tokenId",
          "type": "uint256"
        }
      ],
      "name": "Approval",
      "type": "event"
    },
    {
      "anonymous": false,
      "inputs": [
        {
          "indexed": true,
          "internalType": "address",
          "name": "owner",
          "type": "address"
        },
        {
          "indexed": true,
          "internalType": "address",
          "name": "operator",
          "type": "address"
        },
        {
          "indexed": false,
          "internalType": "bool",
          "name": "approved",
          "type": "bool"
        }
      ],
      "name": "ApprovalForAll",
      "type": "event"
    },
    {
      "anonymous": false,
      "inputs": [
        {
          "indexed": true,
          "internalType": "address",
          "name": "previousOwner",
          "type": "address"
        },
        {
          "indexed": true,
          "internalType": "address",
          "name": "newOwner",
          "type": "address"
        }
      ],
      "name": "OwnershipTransferred",
      "type": "event"
    },
    {
      "anonymous": false,
      "inputs": [
        {
          "indexed": true,
          "internalType": "address",
          "name": "from",
          "type": "address"
        },
        {
          "indexed": true,
          "internalType": "address",
          "name": "to",
          "type": "address"
        },
        {
          "indexed": true,
          "internalType": "uint256",
          "name": "tokenId",
          "type": "uint256"
        }
      ],
      "name": "Transfer",
      "type": "event"
    },
    {
      "inputs": [],
      "name": "MAX_CRATE_TOKEN_COUNT",
      "outputs": [
        {
          "internalType": "uint256",
          "name": "",
          "type": "uint256"
        }
      ],
      "stateMutability": "view",
      "type": "function"
    },
    {
      "inputs": [],
      "name": "MAX_MINT_TOKEN_COUNT",
      "outputs": [
        {
          "internalType": "uint256",
          "name": "",
          "type": "uint256"
        }
      ],
      "stateMutability": "view",
      "type": "function"
    },
    {
      "inputs": [
        {
          "internalType": "address",
          "name": "to",
          "type": "address"
        },
        {
          "internalType": "uint256",
          "name": "tokenId",
          "type": "uint256"
        }
      ],
      "name": "approve",
      "outputs": [],
      "stateMutability": "nonpayable",
      "type": "function"
    },
    {
      "inputs": [
        {
          "internalType": "address",
          "name": "owner",
          "type": "address"
        }
      ],
      "name": "balanceOf",
      "outputs": [
        {
          "internalType": "uint256",
          "name": "",
          "type": "uint256"
        }
      ],
      "stateMutability": "view",
      "type": "function"
    },
    {
      "inputs": [
        {
          "internalType": "uint256",
          "name": "",
          "type": "uint256"
        }
      ],
      "name": "crateUmblData",
      "outputs": [
        {
          "internalType": "uint256",
          "name": "id",
          "type": "uint256"
        },
        {
          "internalType": "uint256",
          "name": "tokenCount",
          "type": "uint256"
        },
        {
          "internalType": "uint256",
          "name": "price",
          "type": "uint256"
        },
        {
          "internalType": "enum UmblNFT.TokenFaction",
          "name": "faction",
          "type": "uint8"
        },
        {
          "internalType": "uint256",
          "name": "level",
          "type": "uint256"
        },
        {
          "internalType": "bool",
          "name": "isDeleted",
          "type": "bool"
        }
      ],
      "stateMutability": "view",
      "type": "function"
    },
    {
      "inputs": [
        {
          "internalType": "uint256",
          "name": "tokenId",
          "type": "uint256"
        }
      ],
      "name": "getApproved",
      "outputs": [
        {
          "internalType": "address",
          "name": "",
          "type": "address"
        }
      ],
      "stateMutability": "view",
      "type": "function"
    },
    {
      "inputs": [
        {
          "internalType": "address",
          "name": "owner",
          "type": "address"
        },
        {
          "internalType": "address",
          "name": "operator",
          "type": "address"
        }
      ],
      "name": "isApprovedForAll",
      "outputs": [
        {
          "internalType": "bool",
          "name": "",
          "type": "bool"
        }
      ],
      "stateMutability": "view",
      "type": "function"
    },
    {
      "inputs": [],
      "name": "isEnabledSale",
      "outputs": [
        {
          "internalType": "bool",
          "name": "",
          "type": "bool"
        }
      ],
      "stateMutability": "view",
      "type": "function"
    },
    {
      "inputs": [],
      "name": "name",
      "outputs": [
        {
          "internalType": "string",
          "name": "",
          "type": "string"
        }
      ],
      "stateMutability": "view",
      "type": "function"
    },
    {
      "inputs": [],
      "name": "nextCrateId",
      "outputs": [
        {
          "internalType": "uint256",
          "name": "",
          "type": "uint256"
        }
      ],
      "stateMutability": "view",
      "type": "function"
    },
    {
      "inputs": [],
      "name": "nextTokenId",
      "outputs": [
        {
          "internalType": "uint256",
          "name": "",
          "type": "uint256"
        }
      ],
      "stateMutability": "view",
      "type": "function"
    },
    {
      "inputs": [],
      "name": "owner",
      "outputs": [
        {
          "internalType": "address",
          "name": "",
          "type": "address"
        }
      ],
      "stateMutability": "view",
      "type": "function"
    },
    {
      "inputs": [
        {
          "internalType": "uint256",
          "name": "tokenId",
          "type": "uint256"
        }
      ],
      "name": "ownerOf",
      "outputs": [
        {
          "internalType": "address",
          "name": "",
          "type": "address"
        }
      ],
      "stateMutability": "view",
      "type": "function"
    },
    {
      "inputs": [],
      "name": "renounceOwnership",
      "outputs": [],
      "stateMutability": "nonpayable",
      "type": "function"
    },
    {
      "inputs": [
        {
          "internalType": "address",
          "name": "from",
          "type": "address"
        },
        {
          "internalType": "address",
          "name": "to",
          "type": "address"
        },
        {
          "internalType": "uint256",
          "name": "tokenId",
          "type": "uint256"
        }
      ],
      "name": "safeTransferFrom",
      "outputs": [],
      "stateMutability": "nonpayable",
      "type": "function"
    },
    {
      "inputs": [
        {
          "internalType": "address",
          "name": "from",
          "type": "address"
        },
        {
          "internalType": "address",
          "name": "to",
          "type": "address"
        },
        {
          "internalType": "uint256",
          "name": "tokenId",
          "type": "uint256"
        },
        {
          "internalType": "bytes",
          "name": "_data",
          "type": "bytes"
        }
      ],
      "name": "safeTransferFrom",
      "outputs": [],
      "stateMutability": "nonpayable",
      "type": "function"
    },
    {
      "inputs": [
        {
          "internalType": "address",
          "name": "operator",
          "type": "address"
        },
        {
          "internalType": "bool",
          "name": "approved",
          "type": "bool"
        }
      ],
      "name": "setApprovalForAll",
      "outputs": [],
      "stateMutability": "nonpayable",
      "type": "function"
    },
    {
      "inputs": [],
      "name": "symbol",
      "outputs": [
        {
          "internalType": "string",
          "name": "",
          "type": "string"
        }
      ],
      "stateMutability": "view",
      "type": "function"
    },
    {
      "inputs": [
        {
          "internalType": "uint256",
          "name": "index",
          "type": "uint256"
        }
      ],
      "name": "tokenByIndex",
      "outputs": [
        {
          "internalType": "uint256",
          "name": "",
          "type": "uint256"
        }
      ],
      "stateMutability": "view",
      "type": "function"
    },
    {
      "inputs": [
        {
          "internalType": "address",
          "name": "owner",
          "type": "address"
        },
        {
          "internalType": "uint256",
          "name": "index",
          "type": "uint256"
        }
      ],
      "name": "tokenOfOwnerByIndex",
      "outputs": [
        {
          "internalType": "uint256",
          "name": "",
          "type": "uint256"
        }
      ],
      "stateMutability": "view",
      "type": "function"
    },
    {
      "inputs": [
        {
          "internalType": "uint256",
          "name": "",
          "type": "uint256"
        }
      ],
      "name": "tokenUmblData",
      "outputs": [
        {
          "internalType": "uint256",
          "name": "id",
          "type": "uint256"
        },
        {
          "internalType": "uint256",
          "name": "price",
          "type": "uint256"
        },
        {
          "internalType": "uint256",
          "name": "health",
          "type": "uint256"
        },
        {
          "internalType": "enum UmblNFT.TokenStatus",
          "name": "status",
          "type": "uint8"
        },
        {
          "internalType": "enum UmblNFT.TokenFaction",
          "name": "faction",
          "type": "uint8"
        },
        {
          "internalType": "enum UmblNFT.TokenCategory",
          "name": "category",
          "type": "uint8"
        },
        {
          "internalType": "enum UmblNFT.TokenRarity",
          "name": "rarity",
          "type": "uint8"
        }
      ],
      "stateMutability": "view",
      "type": "function"
    },
    {
      "inputs": [],
      "name": "totalSupply",
      "outputs": [
        {
          "internalType": "uint256",
          "name": "",
          "type": "uint256"
        }
      ],
      "stateMutability": "view",
      "type": "function"
    },
    {
      "inputs": [
        {
          "internalType": "address",
          "name": "from",
          "type": "address"
        },
        {
          "internalType": "address",
          "name": "to",
          "type": "address"
        },
        {
          "internalType": "uint256",
          "name": "tokenId",
          "type": "uint256"
        }
      ],
      "name": "transferFrom",
      "outputs": [],
      "stateMutability": "nonpayable",
      "type": "function"
    },
    {
      "inputs": [
        {
          "internalType": "address",
          "name": "newOwner",
          "type": "address"
        }
      ],
      "name": "transferOwnership",
      "outputs": [],
      "stateMutability": "nonpayable",
      "type": "function"
    },
    {
      "inputs": [
        {
          "internalType": "address",
          "name": "_owner",
          "type": "address"
        }
      ],
      "name": "tokensOfOwner",
      "outputs": [
        {
          "internalType": "uint256[]",
          "name": "",
          "type": "uint256[]"
        }
      ],
      "stateMutability": "view",
      "type": "function"
    },
    {
      "inputs": [
        {
          "internalType": "uint256",
          "name": "_numTokens",
          "type": "uint256"
        },
        {
          "internalType": "uint256",
          "name": "_faction",
          "type": "uint256"
        },
        {
          "internalType": "uint256",
          "name": "_category",
          "type": "uint256"
        },
        {
          "internalType": "uint256",
          "name": "_rarity",
          "type": "uint256"
        },
        {
          "internalType": "uint256",
          "name": "_price",
          "type": "uint256"
        }
      ],
      "name": "mintToken",
      "outputs": [],
      "stateMutability": "nonpayable",
      "type": "function"
    },
    {
      "inputs": [
        {
          "internalType": "uint256",
          "name": "_crateId",
          "type": "uint256"
        },
        {
          "internalType": "uint256",
          "name": "_numTokens",
          "type": "uint256"
        },
        {
          "internalType": "uint256",
          "name": "_faction",
          "type": "uint256"
        },
        {
          "internalType": "uint256",
          "name": "_level",
          "type": "uint256"
        },
        {
          "internalType": "uint256[]",
          "name": "_rarities",
          "type": "uint256[]"
        },
        {
          "internalType": "uint256",
          "name": "_price",
          "type": "uint256"
        }
      ],
      "name": "applyCrate",
      "outputs": [],
      "stateMutability": "nonpayable",
      "type": "function"
    },
    {
      "inputs": [
        {
          "internalType": "uint256",
          "name": "_index",
          "type": "uint256"
        }
      ],
      "name": "getCrateRarities",
      "outputs": [
        {
          "internalType": "uint256[]",
          "name": "",
          "type": "uint256[]"
        }
      ],
      "stateMutability": "view",
      "type": "function"
    },
    {
      "inputs": [
        {
          "internalType": "uint256",
          "name": "_tokenId",
          "type": "uint256"
        },
        {
          "internalType": "uint256",
          "name": "_tokenStatus",
          "type": "uint256"
        }
      ],
      "name": "setTokenStatus",
      "outputs": [],
      "stateMutability": "payable",
      "type": "function"
    },
    {
      "inputs": [
        {
          "internalType": "uint256",
          "name": "_tokenId",
          "type": "uint256"
        },
        {
          "internalType": "uint256",
          "name": "_tokenHealth",
          "type": "uint256"
        }
      ],
      "name": "setTokenHealth",
      "outputs": [],
      "stateMutability": "payable",
      "type": "function"
    },
    {
      "inputs": [
        {
          "internalType": "uint256",
          "name": "_crateId",
          "type": "uint256"
        }
      ],
      "name": "buyCrate",
      "outputs": [],
      "stateMutability": "payable",
      "type": "function"
    },
    {
      "inputs": [
        {
          "internalType": "uint256",
          "name": "_tokenId",
          "type": "uint256"
        }
      ],
      "name": "buyToken",
      "outputs": [],
      "stateMutability": "payable",
      "type": "function"
    },
    {
      "inputs": [
        {
          "internalType": "uint256",
          "name": "_tokenId",
          "type": "uint256"
        },
        {
          "internalType": "uint256",
          "name": "_newPrice",
          "type": "uint256"
        }
      ],
      "name": "changeTokenPrice",
      "outputs": [],
      "stateMutability": "payable",
      "type": "function"
    },
    {
      "inputs": [
        {
          "internalType": "bytes4",
          "name": "interfaceId",
          "type": "bytes4"
        }
      ],
      "name": "supportsInterface",
      "outputs": [
        {
          "internalType": "bool",
          "name": "",
          "type": "bool"
        }
      ],
      "stateMutability": "view",
      "type": "function"
    },
    {
      "inputs": [
        {
          "internalType": "uint256",
          "name": "tokenId",
          "type": "uint256"
        }
      ],
      "name": "tokenURI",
      "outputs": [
        {
          "internalType": "string",
          "name": "",
          "type": "string"
        }
      ],
      "stateMutability": "view",
      "type": "function"
    },
    {
      "inputs": [
        {
          "internalType": "string",
          "name": "baseURI",
          "type": "string"
        }
      ],
      "name": "setBaseURI",
      "outputs": [],
      "stateMutability": "nonpayable",
      "type": "function"
    },
    {
      "inputs": [],
      "name": "startMarketPlace",
      "outputs": [],
      "stateMutability": "nonpayable",
      "type": "function"
    },
    {
      "inputs": [],
      "name": "pauseMarketPlace",
      "outputs": [],
      "stateMutability": "nonpayable",
      "type": "function"
    },
    {
      "inputs": [
        {
          "internalType": "uint256",
          "name": "_index",
          "type": "uint256"
        }
      ],
      "name": "deleteCrate",
      "outputs": [],
      "stateMutability": "nonpayable",
      "type": "function"
    }
  ],
  "bytecode": "0x60806040526000600c60006101000a81548160ff021916908315150217905550600060105560006011553480156200003657600080fd5b506040516200939a3803806200939a83398181016040528101906200005c91906200044b565b6040518060400160405280600881526020017f556d626c204e46540000000000000000000000000000000000000000000000008152506040518060400160405280600481526020017f554d424c000000000000000000000000000000000000000000000000000000008152508160009080519060200190620000e092919062000329565b508060019080519060200190620000f992919062000329565b5050506200012e6200011962000157640100000000026401000000009004565b6200015f640100000000026401000000009004565b6001600b81905550620001508162000225640100000000026401000000009004565b5062000636565b600033905090565b6000600a60009054906101000a900473ffffffffffffffffffffffffffffffffffffffff16905081600a60006101000a81548173ffffffffffffffffffffffffffffffffffffffff021916908373ffffffffffffffffffffffffffffffffffffffff1602179055508173ffffffffffffffffffffffffffffffffffffffff168173ffffffffffffffffffffffffffffffffffffffff167f8be0079c531659141344cd1fd0a4f28419497f9722a3daafe3b4186f6b6457e060405160405180910390a35050565b6200023e62000157640100000000026401000000009004565b73ffffffffffffffffffffffffffffffffffffffff166200026d620002e3640100000000026401000000009004565b73ffffffffffffffffffffffffffffffffffffffff1614620002c6576040517f08c379a0000000000000000000000000000000000000000000000000000000008152600401620002bd90620004d2565b60405180910390fd5b620002e0816200030d640100000000026401000000009004565b50565b6000600a60009054906101000a900473ffffffffffffffffffffffffffffffffffffffff16905090565b80600f90805190602001906200032592919062000329565b5050565b8280546200033790620005a2565b90600052602060002090601f0160209004810192826200035b5760008555620003a7565b82601f106200037657805160ff1916838001178555620003a7565b82800160010185558215620003a7579182015b82811115620003a657825182559160200191906001019062000389565b5b509050620003b69190620003ba565b5090565b5b80821115620003d5576000816000905550600101620003bb565b5090565b6000620003f0620003ea8462000528565b620004f4565b9050828152602081018484840111156200040957600080fd5b620004168482856200056c565b509392505050565b600082601f8301126200043057600080fd5b815162000442848260208601620003d9565b91505092915050565b6000602082840312156200045e57600080fd5b600082015167ffffffffffffffff8111156200047957600080fd5b62000487848285016200041e565b91505092915050565b60006200049f6020836200055b565b91507f4f776e61626c653a2063616c6c6572206973206e6f7420746865206f776e65726000830152602082019050919050565b60006020820190508181036000830152620004ed8162000490565b9050919050565b6000604051905081810181811067ffffffffffffffff821117156200051e576200051d62000607565b5b8060405250919050565b600067ffffffffffffffff82111562000546576200054562000607565b5b601f19601f8301169050602081019050919050565b600082825260208201905092915050565b60005b838110156200058c5780820151818401526020810190506200056f565b838111156200059c576000848401525b50505050565b60006002820490506001821680620005bb57607f821691505b60208210811415620005d257620005d1620005d8565b5b50919050565b7f4e487b7100000000000000000000000000000000000000000000000000000000600052602260045260246000fd5b7f4e487b7100000000000000000000000000000000000000000000000000000000600052604160045260246000fd5b618d5480620006466000396000f3fe6080604052600436106102bd576000357c01000000000000000000000000000000000000000000000000000000009004806370a082311161018b578063b38d817c116100e8578063c87b56dd1161009c578063e119248e11610081578063e119248e1461091a578063e985e9c514610931578063f2fde38b1461096e576102bd565b8063c87b56dd146108b2578063cb9953e7146108ef576102bd565b8063b88d4fde116100cd578063b88d4fde14610844578063b99a15f81461086d578063c717e8ea14610889576102bd565b8063b38d817c146107e6578063b8049b9914610828576102bd565b80639016617c1161013f57806395d89b411161012457806395d89b4114610767578063a22cb46514610792578063af055820146107bb576102bd565b80639016617c14610722578063955a66151461073e576102bd565b806375794a3c1161017057806375794a3c1461068f5780638462151c146106ba5780638da5cb5b146106f7576102bd565b806370a082311461063b578063715018a614610678576102bd565b80632d296bf1116102395780634f6ccce7116101ed578063594455f5116101d2578063594455f5146105b757806362e8e8ac146105e25780636352211e146105fe576102bd565b80634f6ccce71461055157806355f804b31461058e576102bd565b8063406b98721161021e578063406b9872146104c257806342842e0e146104eb5780634833311314610514576102bd565b80632d296bf1146104695780632f745c5914610485576102bd565b80631280cb62116102905780631d4175a5116102755780631d4175a5146103fe57806323b872dd146104295780632d21a46414610452576102bd565b80631280cb621461039057806318160ddd146103d3576102bd565b806301ffc9a7146102c257806306fdde03146102ff578063081812fc1461032a578063095ea7b314610367575b600080fd5b3480156102ce57600080fd5b506102e960048036038101906102e49190616e13565b610997565b6040516102f6919061813d565b60405180910390f35b34801561030b57600080fd5b506103146109a9565b6040516103219190618158565b60405180910390f35b34801561033657600080fd5b50610351600480360381019061034c9190616ea6565b610a3b565b60405161035e91906180b4565b60405180910390f35b34801561037357600080fd5b5061038e60048036038101906103899190616dd7565b610ac0565b005b34801561039c57600080fd5b506103b760048036038101906103b29190616ea6565b610bd8565b6040516103ca97969594939291906186d6565b60405180910390f35b3480156103df57600080fd5b506103e8610c4e565b6040516103f5919061865a565b60405180910390f35b34801561040a57600080fd5b50610413610c5b565b604051610420919061813d565b60405180910390f35b34801561043557600080fd5b50610450600480360381019061044b9190616cd1565b610c6e565b005b34801561045e57600080fd5b50610467610cce565b005b610483600480360381019061047e9190616ea6565b610d67565b005b34801561049157600080fd5b506104ac60048036038101906104a79190616dd7565b61124b565b6040516104b9919061865a565b60405180910390f35b3480156104ce57600080fd5b506104e960048036038101906104e49190616f0b565b6112f0565b005b3480156104f757600080fd5b50610512600480360381019061050d9190616cd1565b611a4a565b005b34801561052057600080fd5b5061053b60048036038101906105369190616ea6565b611a6a565b604051610548919061811b565b60405180910390f35b34801561055d57600080fd5b5061057860048036038101906105739190616ea6565b611c69565b604051610585919061865a565b60405180910390f35b34801561059a57600080fd5b506105b560048036038101906105b09190616e65565b611d00565b005b3480156105c357600080fd5b506105cc611d88565b6040516105d9919061865a565b60405180910390f35b6105fc60048036038101906105f79190616ecf565b611d8d565b005b34801561060a57600080fd5b5061062560048036038101906106209190616ea6565b61222d565b60405161063291906180b4565b60405180910390f35b34801561064757600080fd5b50610662600480360381019061065d9190616c6c565b6122df565b60405161066f919061865a565b60405180910390f35b34801561068457600080fd5b5061068d612397565b005b34801561069b57600080fd5b506106a461241f565b6040516106b1919061865a565b60405180910390f35b3480156106c657600080fd5b506106e160048036038101906106dc9190616c6c565b612425565b6040516106ee919061811b565b60405180910390f35b34801561070357600080fd5b5061070c6125a1565b60405161071991906180b4565b60405180910390f35b61073c60048036038101906107379190616ea6565b6125cb565b005b34801561074a57600080fd5b5061076560048036038101906107609190616ea6565b613582565b005b34801561077357600080fd5b5061077c61363f565b6040516107899190618158565b60405180910390f35b34801561079e57600080fd5b506107b960048036038101906107b49190616d9b565b6136d1565b005b3480156107c757600080fd5b506107d0613852565b6040516107dd919061865a565b60405180910390f35b3480156107f257600080fd5b5061080d60048036038101906108089190616ea6565b613859565b60405161081f96959493929190618675565b60405180910390f35b610842600480360381019061083d9190616ecf565b6138af565b005b34801561085057600080fd5b5061086b60048036038101906108669190616d20565b613e94565b005b61088760048036038101906108829190616ecf565b613ef6565b005b34801561089557600080fd5b506108b060048036038101906108ab9190616fac565b6147ce565b005b3480156108be57600080fd5b506108d960048036038101906108d49190616ea6565b615365565b6040516108e69190618158565b60405180910390f35b3480156108fb57600080fd5b506109046153bb565b604051610911919061865a565b60405180910390f35b34801561092657600080fd5b5061092f6153c1565b005b34801561093d57600080fd5b5061095860048036038101906109539190616c95565b61545a565b604051610965919061813d565b60405180910390f35b34801561097a57600080fd5b5061099560048036038101906109909190616c6c565b6154ee565b005b60006109a2826155e6565b9050919050565b6060600080546109b890618a83565b80601f01602080910402602001604051908101604052809291908181526020018280546109e490618a83565b8015610a315780601f10610a0657610100808354040283529160200191610a31565b820191906000526020600020905b815481529060010190602001808311610a1457829003601f168201915b5050505050905090565b6000610a4682615660565b610a85576040517f08c379a0000000000000000000000000000000000000000000000000000000008152600401610a7c9061845a565b60405180910390fd5b6004600083815260200190815260200160002060009054906101000a900473ffffffffffffffffffffffffffffffffffffffff169050919050565b6000610acb8261222d565b90508073ffffffffffffffffffffffffffffffffffffffff168373ffffffffffffffffffffffffffffffffffffffff161415610b3c576040517f08c379a0000000000000000000000000000000000000000000000000000000008152600401610b339061855a565b60405180910390fd5b8073ffffffffffffffffffffffffffffffffffffffff16610b5b6156cc565b73ffffffffffffffffffffffffffffffffffffffff161480610b8a5750610b8981610b846156cc565b61545a565b5b610bc9576040517f08c379a0000000000000000000000000000000000000000000000000000000008152600401610bc09061835a565b60405180910390fd5b610bd383836156d4565b505050565b600d6020528060005260406000206000915090508060000154908060010154908060020154908060030160009054906101000a900460ff16908060030160019054906101000a900460ff16908060030160029054906101000a900460ff16908060030160039054906101000a900460ff16905087565b6000600880549050905090565b600c60009054906101000a900460ff1681565b610c7f610c796156cc565b8261578d565b610cbe576040517f08c379a0000000000000000000000000000000000000000000000000000000008152600401610cb59061859a565b60405180910390fd5b610cc983838361586b565b505050565b610cd66156cc565b73ffffffffffffffffffffffffffffffffffffffff16610cf46125a1565b73ffffffffffffffffffffffffffffffffffffffff1614610d4a576040517f08c379a0000000000000000000000000000000000000000000000000000000008152600401610d419061849a565b60405180910390fd5b6000600c60006101000a81548160ff021916908315150217905550565b60011515600c60009054906101000a900460ff16151514610dbd576040517f08c379a0000000000000000000000000000000000000000000000000000000008152600401610db4906185da565b60405180910390fd5b600073ffffffffffffffffffffffffffffffffffffffff163373ffffffffffffffffffffffffffffffffffffffff161415610df757600080fd5b610e0081615660565b610e0957600080fd5b6000610e148261222d565b9050600073ffffffffffffffffffffffffffffffffffffffff168173ffffffffffffffffffffffffffffffffffffffff161415610e5057600080fd5b3373ffffffffffffffffffffffffffffffffffffffff168173ffffffffffffffffffffffffffffffffffffffff161415610e8957600080fd5b6000600d60008481526020019081526020016000206040518060e00160405290816000820154815260200160018201548152602001600282015481526020016003820160009054906101000a900460ff166004811115610f12577f4e487b7100000000000000000000000000000000000000000000000000000000600052602160045260246000fd5b6004811115610f4a577f4e487b7100000000000000000000000000000000000000000000000000000000600052602160045260246000fd5b81526020016003820160019054906101000a900460ff166003811115610f99577f4e487b7100000000000000000000000000000000000000000000000000000000600052602160045260246000fd5b6003811115610fd1577f4e487b7100000000000000000000000000000000000000000000000000000000600052602160045260246000fd5b81526020016003820160029054906101000a900460ff166007811115611020577f4e487b7100000000000000000000000000000000000000000000000000000000600052602160045260246000fd5b6007811115611058577f4e487b7100000000000000000000000000000000000000000000000000000000600052602160045260246000fd5b81526020016003820160039054906101000a900460ff16600c8111156110a7577f4e487b7100000000000000000000000000000000000000000000000000000000600052602160045260246000fd5b600c8111156110df577f4e487b7100000000000000000000000000000000000000000000000000000000600052602160045260246000fd5b81525050905080602001513410156110f657600080fd5b60026004811115611130577f4e487b7100000000000000000000000000000000000000000000000000000000600052602160045260246000fd5b8160600151600481111561116d577f4e487b7100000000000000000000000000000000000000000000000000000000600052602160045260246000fd5b1461117757600080fd5b61118282338561586b565b600082905060006111916125a1565b90506000600a346111a291906188d4565b9050600081346111b29190618905565b90508273ffffffffffffffffffffffffffffffffffffffff166108fc839081150290604051600060405180830381858888f193505050501580156111fa573d6000803e3d6000fd5b508373ffffffffffffffffffffffffffffffffffffffff166108fc829081150290604051600060405180830381858888f19350505050158015611241573d6000803e3d6000fd5b5050505050505050565b6000611256836122df565b8210611297576040517f08c379a000000000000000000000000000000000000000000000000000000000815260040161128e906181fa565b60405180910390fd5b600660008473ffffffffffffffffffffffffffffffffffffffff1673ffffffffffffffffffffffffffffffffffffffff168152602001908152602001600020600083815260200190815260200160002054905092915050565b6112f86156cc565b73ffffffffffffffffffffffffffffffffffffffff166113166125a1565b73ffffffffffffffffffffffffffffffffffffffff161461136c576040517f08c379a00000000000000000000000000000000000000000000000000000000081526004016113639061849a565b60405180910390fd5b6002600b5414156113b2576040517f08c379a00000000000000000000000000000000000000000000000000000000081526004016113a9906185fa565b60405180910390fd5b6002600b819055506000851180156113cb575060648511155b61140a576040517f08c379a00000000000000000000000000000000000000000000000000000000081526004016114019061819a565b60405180910390fd5b6000811161144d576040517f08c379a00000000000000000000000000000000000000000000000000000000081526004016114449061821a565b60405180910390fd5b60016003811115611487577f4e487b7100000000000000000000000000000000000000000000000000000000600052602160045260246000fd5b84101580156114cf5750600260038111156114cb577f4e487b7100000000000000000000000000000000000000000000000000000000600052602160045260246000fd5b8411155b61150e576040517f08c379a00000000000000000000000000000000000000000000000000000000081526004016115059061831a565b60405180910390fd5b6000825111611552576040517f08c379a00000000000000000000000000000000000000000000000000000000081526004016115499061857a565b60405180910390fd5b60005b82518110156116b2576001600c811115611598577f4e487b7100000000000000000000000000000000000000000000000000000000600052602160045260246000fd5b8382815181106115d1577f4e487b7100000000000000000000000000000000000000000000000000000000600052603260045260246000fd5b60200260200101511015801561166057506007600c81111561161c577f4e487b7100000000000000000000000000000000000000000000000000000000600052602160045260246000fd5b838281518110611655577f4e487b7100000000000000000000000000000000000000000000000000000000600052603260045260246000fd5b602002602001015111155b61169f576040517f08c379a00000000000000000000000000000000000000000000000000000000081526004016116969061863a565b60405180910390fd5b80806116aa90618ab5565b915050611555565b50600080871461170957601154871115611701576040517f08c379a00000000000000000000000000000000000000000000000000000000081526004016116f89061853a565b60405180910390fd5b869050611727565b6011600081548092919061171c90618ab5565b919050555060115490505b60006040518060e0016040528083815260200188815260200184815260200187600381111561177f577f4e487b7100000000000000000000000000000000000000000000000000000000600052602160045260246000fd5b60038111156117b7577f4e487b7100000000000000000000000000000000000000000000000000000000600052602160045260246000fd5b8152602001868152602001600067ffffffffffffffff811115611803577f4e487b7100000000000000000000000000000000000000000000000000000000600052604160045260246000fd5b6040519080825280602002602001820160405280156118315781602001602082028036833780820191505090505b50815260200160001515815250905080600e600084815260200190815260200160002060008201518160000155602082015181600101556040820151816002015560608201518160030160006101000a81548160ff021916908360038111156118c3577f4e487b7100000000000000000000000000000000000000000000000000000000600052602160045260246000fd5b02179055506080820151816004015560a08201518160050190805190602001906118ee92919061691e565b5060c08201518160060160006101000a81548160ff02191690831515021790555090505060005b8451811015611a3757600e600084815260200190815260200160002060050185828151811061196d577f4e487b7100000000000000000000000000000000000000000000000000000000600052603260045260246000fd5b6020026020010151600c8111156119ad577f4e487b7100000000000000000000000000000000000000000000000000000000600052602160045260246000fd5b90806001815401808255809150506001900390600052602060002090602091828204019190069091909190916101000a81548160ff0219169083600c811115611a1f577f4e487b7100000000000000000000000000000000000000000000000000000000600052602160045260246000fd5b02179055508080611a2f90618ab5565b915050611915565b5050506001600b81905550505050505050565b611a6583838360405180602001604052806000815250613e94565b505050565b6060601154821115611ab1576040517f08c379a0000000000000000000000000000000000000000000000000000000008152600401611aa89061853a565b60405180910390fd5b6000600e60008481526020019081526020016000206005018054905067ffffffffffffffff811115611b0c577f4e487b7100000000000000000000000000000000000000000000000000000000600052604160045260246000fd5b604051908082528060200260200182016040528015611b3a5781602001602082028036833780820191505090505b50905060005b600e600085815260200190815260200160002060050180549050811015611c5f57600e60008581526020019081526020016000206005018181548110611baf577f4e487b7100000000000000000000000000000000000000000000000000000000600052603260045260246000fd5b90600052602060002090602091828204019190069054906101000a900460ff16600c811115611c07577f4e487b7100000000000000000000000000000000000000000000000000000000600052602160045260246000fd5b828281518110611c40577f4e487b7100000000000000000000000000000000000000000000000000000000600052603260045260246000fd5b6020026020010181815250508080611c5790618ab5565b915050611b40565b5080915050919050565b6000611c73610c4e565b8210611cb4576040517f08c379a0000000000000000000000000000000000000000000000000000000008152600401611cab906185ba565b60405180910390fd5b60088281548110611cee577f4e487b7100000000000000000000000000000000000000000000000000000000600052603260045260246000fd5b90600052602060002001549050919050565b611d086156cc565b73ffffffffffffffffffffffffffffffffffffffff16611d266125a1565b73ffffffffffffffffffffffffffffffffffffffff1614611d7c576040517f08c379a0000000000000000000000000000000000000000000000000000000008152600401611d739061849a565b60405180910390fd5b611d8581615ac7565b50565b606481565b60011515600c60009054906101000a900460ff16151514611de3576040517f08c379a0000000000000000000000000000000000000000000000000000000008152600401611dda906185da565b60405180910390fd5b611dec82615660565b611df557600080fd5b3373ffffffffffffffffffffffffffffffffffffffff16611e158361222d565b73ffffffffffffffffffffffffffffffffffffffff1614611e3557600080fd5b6000600d60008481526020019081526020016000206040518060e00160405290816000820154815260200160018201548152602001600282015481526020016003820160009054906101000a900460ff166004811115611ebe577f4e487b7100000000000000000000000000000000000000000000000000000000600052602160045260246000fd5b6004811115611ef6577f4e487b7100000000000000000000000000000000000000000000000000000000600052602160045260246000fd5b81526020016003820160019054906101000a900460ff166003811115611f45577f4e487b7100000000000000000000000000000000000000000000000000000000600052602160045260246000fd5b6003811115611f7d577f4e487b7100000000000000000000000000000000000000000000000000000000600052602160045260246000fd5b81526020016003820160029054906101000a900460ff166007811115611fcc577f4e487b7100000000000000000000000000000000000000000000000000000000600052602160045260246000fd5b6007811115612004577f4e487b7100000000000000000000000000000000000000000000000000000000600052602160045260246000fd5b81526020016003820160039054906101000a900460ff16600c811115612053577f4e487b7100000000000000000000000000000000000000000000000000000000600052602160045260246000fd5b600c81111561208b577f4e487b7100000000000000000000000000000000000000000000000000000000600052602160045260246000fd5b8152505090508181602001818152505080600d600085815260200190815260200160002060008201518160000155602082015181600101556040820151816002015560608201518160030160006101000a81548160ff0219169083600481111561211e577f4e487b7100000000000000000000000000000000000000000000000000000000600052602160045260246000fd5b021790555060808201518160030160016101000a81548160ff02191690836003811115612174577f4e487b7100000000000000000000000000000000000000000000000000000000600052602160045260246000fd5b021790555060a08201518160030160026101000a81548160ff021916908360078111156121ca577f4e487b7100000000000000000000000000000000000000000000000000000000600052602160045260246000fd5b021790555060c08201518160030160036101000a81548160ff0219169083600c811115612220577f4e487b7100000000000000000000000000000000000000000000000000000000600052602160045260246000fd5b0217905550905050505050565b6000806002600084815260200190815260200160002060009054906101000a900473ffffffffffffffffffffffffffffffffffffffff169050600073ffffffffffffffffffffffffffffffffffffffff168173ffffffffffffffffffffffffffffffffffffffff1614156122d6576040517f08c379a00000000000000000000000000000000000000000000000000000000081526004016122cd9061839a565b60405180910390fd5b80915050919050565b60008073ffffffffffffffffffffffffffffffffffffffff168273ffffffffffffffffffffffffffffffffffffffff161415612350576040517f08c379a00000000000000000000000000000000000000000000000000000000081526004016123479061837a565b60405180910390fd5b600360008373ffffffffffffffffffffffffffffffffffffffff1673ffffffffffffffffffffffffffffffffffffffff168152602001908152602001600020549050919050565b61239f6156cc565b73ffffffffffffffffffffffffffffffffffffffff166123bd6125a1565b73ffffffffffffffffffffffffffffffffffffffff1614612413576040517f08c379a000000000000000000000000000000000000000000000000000000000815260040161240a9061849a565b60405180910390fd5b61241d6000615ae1565b565b60105481565b60606000612432836122df565b905060008114156124b557600067ffffffffffffffff81111561247e577f4e487b7100000000000000000000000000000000000000000000000000000000600052604160045260246000fd5b6040519080825280602002602001820160405280156124ac5781602001602082028036833780820191505090505b5091505061259c565b60008167ffffffffffffffff8111156124f7577f4e487b7100000000000000000000000000000000000000000000000000000000600052604160045260246000fd5b6040519080825280602002602001820160405280156125255781602001602082028036833780820191505090505b50905060005b828110156125955761253d858261124b565b828281518110612576577f4e487b7100000000000000000000000000000000000000000000000000000000600052603260045260246000fd5b602002602001018181525050808061258d90618ab5565b91505061252b565b8193505050505b919050565b6000600a60009054906101000a900473ffffffffffffffffffffffffffffffffffffffff16905090565b600073ffffffffffffffffffffffffffffffffffffffff163373ffffffffffffffffffffffffffffffffffffffff16141561260557600080fd5b61260d6125a1565b73ffffffffffffffffffffffffffffffffffffffff163373ffffffffffffffffffffffffffffffffffffffff16141561264557600080fd5b60115481111561268a576040517f08c379a00000000000000000000000000000000000000000000000000000000081526004016126819061853a565b60405180910390fd5b6000600e60008381526020019081526020016000206040518060e00160405290816000820154815260200160018201548152602001600282015481526020016003820160009054906101000a900460ff166003811115612713577f4e487b7100000000000000000000000000000000000000000000000000000000600052602160045260246000fd5b600381111561274b577f4e487b7100000000000000000000000000000000000000000000000000000000600052602160045260246000fd5b8152602001600482015481526020016005820180548060200260200160405190810160405280929190818152602001828054801561280357602002820191906000526020600020906000905b82829054906101000a900460ff16600c8111156127dd577f4e487b7100000000000000000000000000000000000000000000000000000000600052602160045260246000fd5b815260200190600101906020826000010492830192600103820291508084116127975790505b505050505081526020016006820160009054906101000a900460ff1615151515815250509050806040015134101561283a57600080fd5b6000805b8260a0015151811015612ab1576000600190505b6010548111612a9d5760016004811115612895577f4e487b7100000000000000000000000000000000000000000000000000000000600052602160045260246000fd5b600d600083815260200190815260200160002060030160009054906101000a900460ff1660048111156128f1577f4e487b7100000000000000000000000000000000000000000000000000000000600052602160045260246000fd5b1480156129d457508360a001518281518110612936577f4e487b7100000000000000000000000000000000000000000000000000000000600052603260045260246000fd5b6020026020010151600c811115612976577f4e487b7100000000000000000000000000000000000000000000000000000000600052602160045260246000fd5b600d600083815260200190815260200160002060030160039054906101000a900460ff16600c8111156129d2577f4e487b7100000000000000000000000000000000000000000000000000000000600052602160045260246000fd5b145b8015612a76575083606001516003811115612a18577f4e487b7100000000000000000000000000000000000000000000000000000000600052602160045260246000fd5b600d600083815260200190815260200160002060030160019054906101000a900460ff166003811115612a74577f4e487b7100000000000000000000000000000000000000000000000000000000600052602160045260246000fd5b145b15612a8a578280612a8690618ab5565b9350505b8080612a9590618ab5565b915050612852565b508080612aa990618ab5565b91505061283e565b508160200151811015612af9576040517f08c379a0000000000000000000000000000000000000000000000000000000008152600401612af09061847a565b60405180910390fd5b60008167ffffffffffffffff811115612b3b577f4e487b7100000000000000000000000000000000000000000000000000000000600052604160045260246000fd5b604051908082528060200260200182016040528015612b695781602001602082028036833780820191505090505b5090506000805b8460a0015151811015612e27576000600190505b6010548111612e135760016004811115612bc7577f4e487b7100000000000000000000000000000000000000000000000000000000600052602160045260246000fd5b600d600083815260200190815260200160002060030160009054906101000a900460ff166004811115612c23577f4e487b7100000000000000000000000000000000000000000000000000000000600052602160045260246000fd5b148015612d0657508560a001518281518110612c68577f4e487b7100000000000000000000000000000000000000000000000000000000600052603260045260246000fd5b6020026020010151600c811115612ca8577f4e487b7100000000000000000000000000000000000000000000000000000000600052602160045260246000fd5b600d600083815260200190815260200160002060030160039054906101000a900460ff16600c811115612d04577f4e487b7100000000000000000000000000000000000000000000000000000000600052602160045260246000fd5b145b8015612da8575085606001516003811115612d4a577f4e487b7100000000000000000000000000000000000000000000000000000000600052602160045260246000fd5b600d600083815260200190815260200160002060030160019054906101000a900460ff166003811115612da6577f4e487b7100000000000000000000000000000000000000000000000000000000600052602160045260246000fd5b145b15612e005780848480612dba90618ab5565b955081518110612df3577f4e487b7100000000000000000000000000000000000000000000000000000000600052603260045260246000fd5b6020026020010181815250505b8080612e0b90618ab5565b915050612b84565b508080612e1f90618ab5565b915050612b70565b506000846020015167ffffffffffffffff811115612e6e577f4e487b7100000000000000000000000000000000000000000000000000000000600052604160045260246000fd5b604051908082528060200260200182016040528015612e9c5781602001602082028036833780820191505090505b5090506000806001905060005b8760200151811015612ffa575b600115612fe75760008742338580612ecd90618ab5565b9650604051602001612ee193929190618077565b6040516020818303038152906040528051906020012060019004612f059190618b2c565b90506000805b85811015612f815781158015612f605750868181518110612f55577f4e487b7100000000000000000000000000000000000000000000000000000000600052603260045260246000fd5b602002602001015183145b15612f6e5760019150612f81565b8080612f7990618ab5565b915050612f0b565b5080612fe05781868680612f9490618ab5565b975081518110612fcd577f4e487b7100000000000000000000000000000000000000000000000000000000600052603260045260246000fd5b6020026020010181815250505050612fe7565b5050612eb6565b8080612ff290618ab5565b915050612ea9565b5060005b876020015181101561352357600086858381518110613046577f4e487b7100000000000000000000000000000000000000000000000000000000600052603260045260246000fd5b602002602001015181518110613085577f4e487b7100000000000000000000000000000000000000000000000000000000600052603260045260246000fd5b60200260200101519050600061309a8261222d565b90506130a781338461586b565b6000600d60008481526020019081526020016000206040518060e00160405290816000820154815260200160018201548152602001600282015481526020016003820160009054906101000a900460ff166004811115613130577f4e487b7100000000000000000000000000000000000000000000000000000000600052602160045260246000fd5b6004811115613168577f4e487b7100000000000000000000000000000000000000000000000000000000600052602160045260246000fd5b81526020016003820160019054906101000a900460ff1660038111156131b7577f4e487b7100000000000000000000000000000000000000000000000000000000600052602160045260246000fd5b60038111156131ef577f4e487b7100000000000000000000000000000000000000000000000000000000600052602160045260246000fd5b81526020016003820160029054906101000a900460ff16600781111561323e577f4e487b7100000000000000000000000000000000000000000000000000000000600052602160045260246000fd5b6007811115613276577f4e487b7100000000000000000000000000000000000000000000000000000000600052602160045260246000fd5b81526020016003820160039054906101000a900460ff16600c8111156132c5577f4e487b7100000000000000000000000000000000000000000000000000000000600052602160045260246000fd5b600c8111156132fd577f4e487b7100000000000000000000000000000000000000000000000000000000600052602160045260246000fd5b815250509050600281606001906004811115613342577f4e487b7100000000000000000000000000000000000000000000000000000000600052602160045260246000fd5b9081600481111561337c577f4e487b7100000000000000000000000000000000000000000000000000000000600052602160045260246000fd5b8152505080600d600085815260200190815260200160002060008201518160000155602082015181600101556040820151816002015560608201518160030160006101000a81548160ff02191690836004811115613403577f4e487b7100000000000000000000000000000000000000000000000000000000600052602160045260246000fd5b021790555060808201518160030160016101000a81548160ff02191690836003811115613459577f4e487b7100000000000000000000000000000000000000000000000000000000600052602160045260246000fd5b021790555060a08201518160030160026101000a81548160ff021916908360078111156134af577f4e487b7100000000000000000000000000000000000000000000000000000000600052602160045260246000fd5b021790555060c08201518160030160036101000a81548160ff0219169083600c811115613505577f4e487b7100000000000000000000000000000000000000000000000000000000600052602160045260246000fd5b0217905550905050505050808061351b90618ab5565b915050612ffe565b50600061352e6125a1565b90508073ffffffffffffffffffffffffffffffffffffffff166108fc349081150290604051600060405180830381858888f19350505050158015613576573d6000803e3d6000fd5b50505050505050505050565b61358a6156cc565b73ffffffffffffffffffffffffffffffffffffffff166135a86125a1565b73ffffffffffffffffffffffffffffffffffffffff16146135fe576040517f08c379a00000000000000000000000000000000000000000000000000000000081526004016135f59061849a565b60405180910390fd5b60115481111561360d57600080fd5b6001600e600083815260200190815260200160002060060160006101000a81548160ff02191690831515021790555050565b60606001805461364e90618a83565b80601f016020809104026020016040519081016040528092919081815260200182805461367a90618a83565b80156136c75780601f1061369c576101008083540402835291602001916136c7565b820191906000526020600020905b8154815290600101906020018083116136aa57829003601f168201915b5050505050905090565b6136d96156cc565b73ffffffffffffffffffffffffffffffffffffffff168273ffffffffffffffffffffffffffffffffffffffff161415613747576040517f08c379a000000000000000000000000000000000000000000000000000000000815260040161373e906182ba565b60405180910390fd5b80600560006137546156cc565b73ffffffffffffffffffffffffffffffffffffffff1673ffffffffffffffffffffffffffffffffffffffff16815260200190815260200160002060008473ffffffffffffffffffffffffffffffffffffffff1673ffffffffffffffffffffffffffffffffffffffff16815260200190815260200160002060006101000a81548160ff0219169083151502179055508173ffffffffffffffffffffffffffffffffffffffff166138016156cc565b73ffffffffffffffffffffffffffffffffffffffff167f17307eab39ab6107e8899845ad3d59bd9653f200f220920489ca2b5937696c3183604051613846919061813d565b60405180910390a35050565b620186a081565b600e6020528060005260406000206000915090508060000154908060010154908060020154908060030160009054906101000a900460ff16908060040154908060060160009054906101000a900460ff16905086565b6138b882615660565b6138c157600080fd5b3373ffffffffffffffffffffffffffffffffffffffff166138e18361222d565b73ffffffffffffffffffffffffffffffffffffffff161461390157600080fd5b6000600d60008481526020019081526020016000206040518060e00160405290816000820154815260200160018201548152602001600282015481526020016003820160009054906101000a900460ff16600481111561398a577f4e487b7100000000000000000000000000000000000000000000000000000000600052602160045260246000fd5b60048111156139c2577f4e487b7100000000000000000000000000000000000000000000000000000000600052602160045260246000fd5b81526020016003820160019054906101000a900460ff166003811115613a11577f4e487b7100000000000000000000000000000000000000000000000000000000600052602160045260246000fd5b6003811115613a49577f4e487b7100000000000000000000000000000000000000000000000000000000600052602160045260246000fd5b81526020016003820160029054906101000a900460ff166007811115613a98577f4e487b7100000000000000000000000000000000000000000000000000000000600052602160045260246000fd5b6007811115613ad0577f4e487b7100000000000000000000000000000000000000000000000000000000600052602160045260246000fd5b81526020016003820160039054906101000a900460ff16600c811115613b1f577f4e487b7100000000000000000000000000000000000000000000000000000000600052602160045260246000fd5b600c811115613b57577f4e487b7100000000000000000000000000000000000000000000000000000000600052602160045260246000fd5b81525050905060006004811115613b97577f4e487b7100000000000000000000000000000000000000000000000000000000600052602160045260246000fd5b81606001516004811115613bd4577f4e487b7100000000000000000000000000000000000000000000000000000000600052602160045260246000fd5b14158015613c57575060016004811115613c17577f4e487b7100000000000000000000000000000000000000000000000000000000600052602160045260246000fd5b81606001516004811115613c54577f4e487b7100000000000000000000000000000000000000000000000000000000600052602160045260246000fd5b14155b613c96576040517f08c379a0000000000000000000000000000000000000000000000000000000008152600401613c8d906182da565b60405180910390fd5b8181604001511415613ca757600080fd5b60008210158015613cb9575060648211155b613cf8576040517f08c379a0000000000000000000000000000000000000000000000000000000008152600401613cef906183ba565b60405180910390fd5b8181604001818152505080600d600085815260200190815260200160002060008201518160000155602082015181600101556040820151816002015560608201518160030160006101000a81548160ff02191690836004811115613d85577f4e487b7100000000000000000000000000000000000000000000000000000000600052602160045260246000fd5b021790555060808201518160030160016101000a81548160ff02191690836003811115613ddb577f4e487b7100000000000000000000000000000000000000000000000000000000600052602160045260246000fd5b021790555060a08201518160030160026101000a81548160ff02191690836007811115613e31577f4e487b7100000000000000000000000000000000000000000000000000000000600052602160045260246000fd5b021790555060c08201518160030160036101000a81548160ff0219169083600c811115613e87577f4e487b7100000000000000000000000000000000000000000000000000000000600052602160045260246000fd5b0217905550905050505050565b613ea5613e9f6156cc565b8361578d565b613ee4576040517f08c379a0000000000000000000000000000000000000000000000000000000008152600401613edb9061859a565b60405180910390fd5b613ef084848484615ba7565b50505050565b613eff82615660565b613f0857600080fd5b3373ffffffffffffffffffffffffffffffffffffffff16613f288361222d565b73ffffffffffffffffffffffffffffffffffffffff1614613f4857600080fd5b6000600d60008481526020019081526020016000206040518060e00160405290816000820154815260200160018201548152602001600282015481526020016003820160009054906101000a900460ff166004811115613fd1577f4e487b7100000000000000000000000000000000000000000000000000000000600052602160045260246000fd5b6004811115614009577f4e487b7100000000000000000000000000000000000000000000000000000000600052602160045260246000fd5b81526020016003820160019054906101000a900460ff166003811115614058577f4e487b7100000000000000000000000000000000000000000000000000000000600052602160045260246000fd5b6003811115614090577f4e487b7100000000000000000000000000000000000000000000000000000000600052602160045260246000fd5b81526020016003820160029054906101000a900460ff1660078111156140df577f4e487b7100000000000000000000000000000000000000000000000000000000600052602160045260246000fd5b6007811115614117577f4e487b7100000000000000000000000000000000000000000000000000000000600052602160045260246000fd5b81526020016003820160039054906101000a900460ff16600c811115614166577f4e487b7100000000000000000000000000000000000000000000000000000000600052602160045260246000fd5b600c81111561419e577f4e487b7100000000000000000000000000000000000000000000000000000000600052602160045260246000fd5b815250509050600060048111156141de577f4e487b7100000000000000000000000000000000000000000000000000000000600052602160045260246000fd5b8160600151600481111561421b577f4e487b7100000000000000000000000000000000000000000000000000000000600052602160045260246000fd5b1415801561429e57506001600481111561425e577f4e487b7100000000000000000000000000000000000000000000000000000000600052602160045260246000fd5b8160600151600481111561429b577f4e487b7100000000000000000000000000000000000000000000000000000000600052602160045260246000fd5b14155b6142dd576040517f08c379a00000000000000000000000000000000000000000000000000000000081526004016142d4906183da565b60405180910390fd5b816004811115614316577f4e487b7100000000000000000000000000000000000000000000000000000000600052602160045260246000fd5b600481111561434e577f4e487b7100000000000000000000000000000000000000000000000000000000600052602160045260246000fd5b8160600151600481111561438b577f4e487b7100000000000000000000000000000000000000000000000000000000600052602160045260246000fd5b141561439657600080fd5b6004808111156143cf577f4e487b7100000000000000000000000000000000000000000000000000000000600052602160045260246000fd5b82141561441e57600081604001511461441d576040517f08c379a0000000000000000000000000000000000000000000000000000000008152600401614414906181da565b60405180910390fd5b5b60026004811115614458577f4e487b7100000000000000000000000000000000000000000000000000000000600052602160045260246000fd5b826004811115614491577f4e487b7100000000000000000000000000000000000000000000000000000000600052602160045260246000fd5b60048111156144c9577f4e487b7100000000000000000000000000000000000000000000000000000000600052602160045260246000fd5b1015801561457f575060048081111561450b577f4e487b7100000000000000000000000000000000000000000000000000000000600052602160045260246000fd5b826004811115614544577f4e487b7100000000000000000000000000000000000000000000000000000000600052602160045260246000fd5b600481111561457c577f4e487b7100000000000000000000000000000000000000000000000000000000600052602160045260246000fd5b11155b61458857600080fd5b8160048111156145c1577f4e487b7100000000000000000000000000000000000000000000000000000000600052602160045260246000fd5b816060019060048111156145fe577f4e487b7100000000000000000000000000000000000000000000000000000000600052602160045260246000fd5b90816004811115614638577f4e487b7100000000000000000000000000000000000000000000000000000000600052602160045260246000fd5b8152505080600d600085815260200190815260200160002060008201518160000155602082015181600101556040820151816002015560608201518160030160006101000a81548160ff021916908360048111156146bf577f4e487b7100000000000000000000000000000000000000000000000000000000600052602160045260246000fd5b021790555060808201518160030160016101000a81548160ff02191690836003811115614715577f4e487b7100000000000000000000000000000000000000000000000000000000600052602160045260246000fd5b021790555060a08201518160030160026101000a81548160ff0219169083600781111561476b577f4e487b7100000000000000000000000000000000000000000000000000000000600052602160045260246000fd5b021790555060c08201518160030160036101000a81548160ff0219169083600c8111156147c1577f4e487b7100000000000000000000000000000000000000000000000000000000600052602160045260246000fd5b0217905550905050505050565b6147d66156cc565b73ffffffffffffffffffffffffffffffffffffffff166147f46125a1565b73ffffffffffffffffffffffffffffffffffffffff161461484a576040517f08c379a00000000000000000000000000000000000000000000000000000000081526004016148419061849a565b60405180910390fd5b6002600b541415614890576040517f08c379a0000000000000000000000000000000000000000000000000000000008152600401614887906185fa565b60405180910390fd5b6002600b819055506000851180156148ab5750620186a08511155b6148ea576040517f08c379a00000000000000000000000000000000000000000000000000000000081526004016148e19061817a565b60405180910390fd5b60016007811115614924577f4e487b7100000000000000000000000000000000000000000000000000000000600052602160045260246000fd5b831015801561496b5750600780811115614967577f4e487b7100000000000000000000000000000000000000000000000000000000600052602160045260246000fd5b8311155b6149aa576040517f08c379a00000000000000000000000000000000000000000000000000000000081526004016149a19061851a565b60405180910390fd5b6001600c8111156149e4577f4e487b7100000000000000000000000000000000000000000000000000000000600052602160045260246000fd5b8210158015614a2b5750600c80811115614a27577f4e487b7100000000000000000000000000000000000000000000000000000000600052602160045260246000fd5b8211155b614a6a576040517f08c379a0000000000000000000000000000000000000000000000000000000008152600401614a619061841a565b60405180910390fd5b600780811115614aa3577f4e487b7100000000000000000000000000000000000000000000000000000000600052602160045260246000fd5b8314614c305760016003811115614ae3577f4e487b7100000000000000000000000000000000000000000000000000000000600052602160045260246000fd5b8410158015614b2b575060026003811115614b27577f4e487b7100000000000000000000000000000000000000000000000000000000600052602160045260246000fd5b8411155b614b6a576040517f08c379a0000000000000000000000000000000000000000000000000000000008152600401614b619061831a565b60405180910390fd5b6001600c811115614ba4577f4e487b7100000000000000000000000000000000000000000000000000000000600052602160045260246000fd5b8210158015614bec57506007600c811115614be8577f4e487b7100000000000000000000000000000000000000000000000000000000600052602160045260246000fd5b8211155b614c2b576040517f08c379a0000000000000000000000000000000000000000000000000000000008152600401614c229061843a565b60405180910390fd5b614d6b565b600380811115614c69577f4e487b7100000000000000000000000000000000000000000000000000000000600052602160045260246000fd5b8414614caa576040517f08c379a0000000000000000000000000000000000000000000000000000000008152600401614ca19061833a565b60405180910390fd5b6008600c811115614ce4577f4e487b7100000000000000000000000000000000000000000000000000000000600052602160045260246000fd5b8210158015614d2b5750600c80811115614d27577f4e487b7100000000000000000000000000000000000000000000000000000000600052602160045260246000fd5b8211155b614d6a576040517f08c379a0000000000000000000000000000000000000000000000000000000008152600401614d61906181ba565b60405180910390fd5b5b60016003811115614da5577f4e487b7100000000000000000000000000000000000000000000000000000000600052602160045260246000fd5b841415614e725760016007811115614de6577f4e487b7100000000000000000000000000000000000000000000000000000000600052602160045260246000fd5b8310158015614e2e575060036007811115614e2a577f4e487b7100000000000000000000000000000000000000000000000000000000600052602160045260246000fd5b8311155b614e6d576040517f08c379a0000000000000000000000000000000000000000000000000000000008152600401614e649061861a565b60405180910390fd5b614f76565b60026003811115614eac577f4e487b7100000000000000000000000000000000000000000000000000000000600052602160045260246000fd5b841415614f755760046007811115614eed577f4e487b7100000000000000000000000000000000000000000000000000000000600052602160045260246000fd5b8310158015614f35575060066007811115614f31577f4e487b7100000000000000000000000000000000000000000000000000000000600052602160045260246000fd5b8311155b614f74576040517f08c379a0000000000000000000000000000000000000000000000000000000008152600401614f6b906184da565b60405180910390fd5b5b5b60008111614fb9576040517f08c379a0000000000000000000000000000000000000000000000000000000008152600401614fb09061821a565b60405180910390fd5b60005b858110156153555760106000815480929190614fd790618ab5565b9190505550614fef614fe76125a1565b601054615c03565b60006040518060e001604052806010548152602001848152602001606481526020016001600481111561504b577f4e487b7100000000000000000000000000000000000000000000000000000000600052602160045260246000fd5b8152602001876003811115615089577f4e487b7100000000000000000000000000000000000000000000000000000000600052602160045260246000fd5b60038111156150c1577f4e487b7100000000000000000000000000000000000000000000000000000000600052602160045260246000fd5b81526020018660078111156150ff577f4e487b7100000000000000000000000000000000000000000000000000000000600052602160045260246000fd5b6007811115615137577f4e487b7100000000000000000000000000000000000000000000000000000000600052602160045260246000fd5b815260200185600c811115615175577f4e487b7100000000000000000000000000000000000000000000000000000000600052602160045260246000fd5b600c8111156151ad577f4e487b7100000000000000000000000000000000000000000000000000000000600052602160045260246000fd5b815250905080600d6000601054815260200190815260200160002060008201518160000155602082015181600101556040820151816002015560608201518160030160006101000a81548160ff02191690836004811115615237577f4e487b7100000000000000000000000000000000000000000000000000000000600052602160045260246000fd5b021790555060808201518160030160016101000a81548160ff0219169083600381111561528d577f4e487b7100000000000000000000000000000000000000000000000000000000600052602160045260246000fd5b021790555060a08201518160030160026101000a81548160ff021916908360078111156152e3577f4e487b7100000000000000000000000000000000000000000000000000000000600052602160045260246000fd5b021790555060c08201518160030160036101000a81548160ff0219169083600c811115615339577f4e487b7100000000000000000000000000000000000000000000000000000000600052602160045260246000fd5b021790555090505050808061534d90618ab5565b915050614fbc565b506001600b819055505050505050565b6060600061537283615c21565b9050600081511161539257604051806020016040528060008152506153b3565b806040516020016153a3919061803c565b6040516020818303038152906040525b915050919050565b60115481565b6153c96156cc565b73ffffffffffffffffffffffffffffffffffffffff166153e76125a1565b73ffffffffffffffffffffffffffffffffffffffff161461543d576040517f08c379a00000000000000000000000000000000000000000000000000000000081526004016154349061849a565b60405180910390fd5b6001600c60006101000a81548160ff021916908315150217905550565b6000600560008473ffffffffffffffffffffffffffffffffffffffff1673ffffffffffffffffffffffffffffffffffffffff16815260200190815260200160002060008373ffffffffffffffffffffffffffffffffffffffff1673ffffffffffffffffffffffffffffffffffffffff16815260200190815260200160002060009054906101000a900460ff16905092915050565b6154f66156cc565b73ffffffffffffffffffffffffffffffffffffffff166155146125a1565b73ffffffffffffffffffffffffffffffffffffffff161461556a576040517f08c379a00000000000000000000000000000000000000000000000000000000081526004016155619061849a565b60405180910390fd5b600073ffffffffffffffffffffffffffffffffffffffff168173ffffffffffffffffffffffffffffffffffffffff1614156155da576040517f08c379a00000000000000000000000000000000000000000000000000000000081526004016155d19061825a565b60405180910390fd5b6155e381615ae1565b50565b60007f780e9d63000000000000000000000000000000000000000000000000000000007bffffffffffffffffffffffffffffffffffffffffffffffffffffffff1916827bffffffffffffffffffffffffffffffffffffffffffffffffffffffff19161480615659575061565882615cc8565b5b9050919050565b60008073ffffffffffffffffffffffffffffffffffffffff166002600084815260200190815260200160002060009054906101000a900473ffffffffffffffffffffffffffffffffffffffff1673ffffffffffffffffffffffffffffffffffffffff1614159050919050565b600033905090565b816004600083815260200190815260200160002060006101000a81548173ffffffffffffffffffffffffffffffffffffffff021916908373ffffffffffffffffffffffffffffffffffffffff160217905550808273ffffffffffffffffffffffffffffffffffffffff166157478361222d565b73ffffffffffffffffffffffffffffffffffffffff167f8c5be1e5ebec7d5bd14f71427d1e84f3dd0314c0f7b2291e5b200ac8c7c3b92560405160405180910390a45050565b600061579882615660565b6157d7576040517f08c379a00000000000000000000000000000000000000000000000000000000081526004016157ce906182fa565b60405180910390fd5b60006157e28361222d565b90508073ffffffffffffffffffffffffffffffffffffffff168473ffffffffffffffffffffffffffffffffffffffff16148061585157508373ffffffffffffffffffffffffffffffffffffffff1661583984610a3b565b73ffffffffffffffffffffffffffffffffffffffff16145b806158625750615861818561545a565b5b91505092915050565b8273ffffffffffffffffffffffffffffffffffffffff1661588b8261222d565b73ffffffffffffffffffffffffffffffffffffffff16146158e1576040517f08c379a00000000000000000000000000000000000000000000000000000000081526004016158d8906184ba565b60405180910390fd5b600073ffffffffffffffffffffffffffffffffffffffff168273ffffffffffffffffffffffffffffffffffffffff161415615951576040517f08c379a00000000000000000000000000000000000000000000000000000000081526004016159489061829a565b60405180910390fd5b61595c838383615daa565b6159676000826156d4565b6001600360008573ffffffffffffffffffffffffffffffffffffffff1673ffffffffffffffffffffffffffffffffffffffff16815260200190815260200160002060008282546159b79190618905565b925050819055506001600360008473ffffffffffffffffffffffffffffffffffffffff1673ffffffffffffffffffffffffffffffffffffffff1681526020019081526020016000206000828254615a0e919061887e565b92505081905550816002600083815260200190815260200160002060006101000a81548173ffffffffffffffffffffffffffffffffffffffff021916908373ffffffffffffffffffffffffffffffffffffffff160217905550808273ffffffffffffffffffffffffffffffffffffffff168473ffffffffffffffffffffffffffffffffffffffff167fddf252ad1be2c89b69c2b068fc378daa952ba7f163c4a11628f55a4df523b3ef60405160405180910390a4505050565b80600f9080519060200190615add9291906169fa565b5050565b6000600a60009054906101000a900473ffffffffffffffffffffffffffffffffffffffff16905081600a60006101000a81548173ffffffffffffffffffffffffffffffffffffffff021916908373ffffffffffffffffffffffffffffffffffffffff1602179055508173ffffffffffffffffffffffffffffffffffffffff168173ffffffffffffffffffffffffffffffffffffffff167f8be0079c531659141344cd1fd0a4f28419497f9722a3daafe3b4186f6b6457e060405160405180910390a35050565b615bb284848461586b565b615bbe84848484615dba565b615bfd576040517f08c379a0000000000000000000000000000000000000000000000000000000008152600401615bf49061823a565b60405180910390fd5b50505050565b615c1d828260405180602001604052806000815250615f89565b5050565b6060615c2c82615660565b615c6b576040517f08c379a0000000000000000000000000000000000000000000000000000000008152600401615c62906184fa565b60405180910390fd5b6000615c75615fe4565b90506000815111615c955760405180602001604052806000815250615cc0565b80615c9f84616076565b604051602001615cb0929190618053565b6040516020818303038152906040525b915050919050565b60007f80ac58cd000000000000000000000000000000000000000000000000000000007bffffffffffffffffffffffffffffffffffffffffffffffffffffffff1916827bffffffffffffffffffffffffffffffffffffffffffffffffffffffff19161480615d9357507f5b5e139f000000000000000000000000000000000000000000000000000000007bffffffffffffffffffffffffffffffffffffffffffffffffffffffff1916827bffffffffffffffffffffffffffffffffffffffffffffffffffffffff1916145b80615da35750615da282616242565b5b9050919050565b615db58383836162ac565b505050565b6000615ddb8473ffffffffffffffffffffffffffffffffffffffff166163c0565b15615f7c578373ffffffffffffffffffffffffffffffffffffffff1663150b7a02615e046156cc565b8786866040518563ffffffff167c0100000000000000000000000000000000000000000000000000000000028152600401615e4294939291906180cf565b602060405180830381600087803b158015615e5c57600080fd5b505af1925050508015615e8d57506040513d601f19601f82011682018060405250810190615e8a9190616e3c565b60015b615f10573d8060008114615ebd576040519150601f19603f3d011682016040523d82523d6000602084013e615ec2565b606091505b50600081511415615f08576040517f08c379a0000000000000000000000000000000000000000000000000000000008152600401615eff9061823a565b60405180910390fd5b805181602001fd5b63150b7a027c0100000000000000000000000000000000000000000000000000000000027bffffffffffffffffffffffffffffffffffffffffffffffffffffffff1916817bffffffffffffffffffffffffffffffffffffffffffffffffffffffff191614915050615f81565b600190505b949350505050565b615f9383836163d3565b615fa06000848484615dba565b615fdf576040517f08c379a0000000000000000000000000000000000000000000000000000000008152600401615fd69061823a565b60405180910390fd5b505050565b6060600f8054615ff390618a83565b80601f016020809104026020016040519081016040528092919081815260200182805461601f90618a83565b801561606c5780601f106160415761010080835404028352916020019161606c565b820191906000526020600020905b81548152906001019060200180831161604f57829003601f168201915b5050505050905090565b606060008214156160be576040518060400160405280600181526020017f3000000000000000000000000000000000000000000000000000000000000000815250905061623d565b600082905060005b600082146160f05780806160d990618ab5565b915050600a826160e991906188d4565b91506160c6565b60008167ffffffffffffffff811115616132577f4e487b7100000000000000000000000000000000000000000000000000000000600052604160045260246000fd5b6040519080825280601f01601f1916602001820160405280156161645781602001600182028036833780820191505090505b5090505b600085146162365760018261617d9190618905565b9150600a8561618c9190618b2c565b6030616198919061887e565b7f0100000000000000000000000000000000000000000000000000000000000000028183815181106161f3577f4e487b7100000000000000000000000000000000000000000000000000000000600052603260045260246000fd5b60200101907effffffffffffffffffffffffffffffffffffffffffffffffffffffffffffff1916908160001a905350600a8561622f91906188d4565b9450616168565b8093505050505b919050565b60007f01ffc9a7000000000000000000000000000000000000000000000000000000007bffffffffffffffffffffffffffffffffffffffffffffffffffffffff1916827bffffffffffffffffffffffffffffffffffffffffffffffffffffffff1916149050919050565b6162b78383836165a1565b600073ffffffffffffffffffffffffffffffffffffffff168373ffffffffffffffffffffffffffffffffffffffff1614156162fa576162f5816165a6565b616339565b8173ffffffffffffffffffffffffffffffffffffffff168373ffffffffffffffffffffffffffffffffffffffff16146163385761633783826165ef565b5b5b600073ffffffffffffffffffffffffffffffffffffffff168273ffffffffffffffffffffffffffffffffffffffff16141561637c576163778161675c565b6163bb565b8273ffffffffffffffffffffffffffffffffffffffff168273ffffffffffffffffffffffffffffffffffffffff16146163ba576163b9828261689f565b5b5b505050565b600080823b905060008111915050919050565b600073ffffffffffffffffffffffffffffffffffffffff168273ffffffffffffffffffffffffffffffffffffffff161415616443576040517f08c379a000000000000000000000000000000000000000000000000000000000815260040161643a906183fa565b60405180910390fd5b61644c81615660565b1561648c576040517f08c379a00000000000000000000000000000000000000000000000000000000081526004016164839061827a565b60405180910390fd5b61649860008383615daa565b6001600360008473ffffffffffffffffffffffffffffffffffffffff1673ffffffffffffffffffffffffffffffffffffffff16815260200190815260200160002060008282546164e8919061887e565b92505081905550816002600083815260200190815260200160002060006101000a81548173ffffffffffffffffffffffffffffffffffffffff021916908373ffffffffffffffffffffffffffffffffffffffff160217905550808273ffffffffffffffffffffffffffffffffffffffff16600073ffffffffffffffffffffffffffffffffffffffff167fddf252ad1be2c89b69c2b068fc378daa952ba7f163c4a11628f55a4df523b3ef60405160405180910390a45050565b505050565b6008805490506009600083815260200190815260200160002081905550600881908060018154018082558091505060019003906000526020600020016000909190919091505550565b600060016165fc846122df565b6166069190618905565b90506000600760008481526020019081526020016000205490508181146166eb576000600660008673ffffffffffffffffffffffffffffffffffffffff1673ffffffffffffffffffffffffffffffffffffffff168152602001908152602001600020600084815260200190815260200160002054905080600660008773ffffffffffffffffffffffffffffffffffffffff1673ffffffffffffffffffffffffffffffffffffffff168152602001908152602001600020600084815260200190815260200160002081905550816007600083815260200190815260200160002081905550505b6007600084815260200190815260200160002060009055600660008573ffffffffffffffffffffffffffffffffffffffff1673ffffffffffffffffffffffffffffffffffffffff16815260200190815260200160002060008381526020019081526020016000206000905550505050565b600060016008805490506167709190618905565b90506000600960008481526020019081526020016000205490506000600883815481106167c6577f4e487b7100000000000000000000000000000000000000000000000000000000600052603260045260246000fd5b90600052602060002001549050806008838154811061680e577f4e487b7100000000000000000000000000000000000000000000000000000000600052603260045260246000fd5b906000526020600020018190555081600960008381526020019081526020016000208190555060096000858152602001908152602001600020600090556008805480616883577f4e487b7100000000000000000000000000000000000000000000000000000000600052603160045260246000fd5b6001900381819060005260206000200160009055905550505050565b60006168aa836122df565b905081600660008573ffffffffffffffffffffffffffffffffffffffff1673ffffffffffffffffffffffffffffffffffffffff168152602001908152602001600020600083815260200190815260200160002081905550806007600084815260200190815260200160002081905550505050565b82805482825590600052602060002090601f016020900481019282156169e95791602002820160005b838211156169ba57835183826101000a81548160ff0219169083600c811115616999577f4e487b7100000000000000000000000000000000000000000000000000000000600052602160045260246000fd5b02179055509260200192600101602081600001049283019260010302616947565b80156169e75782816101000a81549060ff02191690556001016020816000010492830192600103026169ba565b505b5090506169f69190616a80565b5090565b828054616a0690618a83565b90600052602060002090601f016020900481019282616a285760008555616a6f565b82601f10616a4157805160ff1916838001178555616a6f565b82800160010185558215616a6f579182015b82811115616a6e578251825591602001919060010190616a53565b5b509050616a7c9190616a80565b5090565b5b80821115616a99576000816000905550600101616a81565b5090565b6000616ab0616aab84618776565b618745565b90508083825260208201905082856020860282011115616acf57600080fd5b60005b85811015616aff5781616ae58882616c57565b845260208401935060208301925050600181019050616ad2565b5050509392505050565b6000616b1c616b17846187a2565b618745565b905082815260208101848484011115616b3457600080fd5b616b3f848285618a41565b509392505050565b6000616b5a616b55846187d2565b618745565b905082815260208101848484011115616b7257600080fd5b616b7d848285618a41565b509392505050565b600081359050616b9481618cc2565b92915050565b600082601f830112616bab57600080fd5b8135616bbb848260208601616a9d565b91505092915050565b600081359050616bd381618cd9565b92915050565b600081359050616be881618cf0565b92915050565b600081519050616bfd81618cf0565b92915050565b600082601f830112616c1457600080fd5b8135616c24848260208601616b09565b91505092915050565b600082601f830112616c3e57600080fd5b8135616c4e848260208601616b47565b91505092915050565b600081359050616c6681618d07565b92915050565b600060208284031215616c7e57600080fd5b6000616c8c84828501616b85565b91505092915050565b60008060408385031215616ca857600080fd5b6000616cb685828601616b85565b9250506020616cc785828601616b85565b9150509250929050565b600080600060608486031215616ce657600080fd5b6000616cf486828701616b85565b9350506020616d0586828701616b85565b9250506040616d1686828701616c57565b9150509250925092565b60008060008060808587031215616d3657600080fd5b6000616d4487828801616b85565b9450506020616d5587828801616b85565b9350506040616d6687828801616c57565b925050606085013567ffffffffffffffff811115616d8357600080fd5b616d8f87828801616c03565b91505092959194509250565b60008060408385031215616dae57600080fd5b6000616dbc85828601616b85565b9250506020616dcd85828601616bc4565b9150509250929050565b60008060408385031215616dea57600080fd5b6000616df885828601616b85565b9250506020616e0985828601616c57565b9150509250929050565b600060208284031215616e2557600080fd5b6000616e3384828501616bd9565b91505092915050565b600060208284031215616e4e57600080fd5b6000616e5c84828501616bee565b91505092915050565b600060208284031215616e7757600080fd5b600082013567ffffffffffffffff811115616e9157600080fd5b616e9d84828501616c2d565b91505092915050565b600060208284031215616eb857600080fd5b6000616ec684828501616c57565b91505092915050565b60008060408385031215616ee257600080fd5b6000616ef085828601616c57565b9250506020616f0185828601616c57565b9150509250929050565b60008060008060008060c08789031215616f2457600080fd5b6000616f3289828a01616c57565b9650506020616f4389828a01616c57565b9550506040616f5489828a01616c57565b9450506060616f6589828a01616c57565b935050608087013567ffffffffffffffff811115616f8257600080fd5b616f8e89828a01616b9a565b92505060a0616f9f89828a01616c57565b9150509295509295509295565b600080600080600060a08688031215616fc457600080fd5b6000616fd288828901616c57565b9550506020616fe388828901616c57565b9450506040616ff488828901616c57565b935050606061700588828901616c57565b925050608061701688828901616c57565b9150509295509295909350565b600061702f8383618007565b60208301905092915050565b61704481618939565b82525050565b61705b61705682618939565b618afe565b82525050565b600061706c82618812565b6170768185618840565b935061708183618802565b8060005b838110156170b25781516170998882617023565b97506170a483618833565b925050600181019050617085565b5085935050505092915050565b6170c88161894b565b82525050565b60006170d98261881d565b6170e38185618851565b93506170f3818560208601618a50565b6170fc81618c48565b840191505092915050565b617110816189f9565b82525050565b61711f81618a0b565b82525050565b61712e81618a1d565b82525050565b61713d81618a2f565b82525050565b600061714e82618828565b6171588185618862565b9350617168818560208601618a50565b61717181618c48565b840191505092915050565b600061718782618828565b6171918185618873565b93506171a1818560208601618a50565b80840191505092915050565b60006171ba601f83618862565b91507f4d757374206d696e742066726f6d203120746f20313030303030204e465473006000830152602082019050919050565b60006171fa602183618862565b91507f4d75737420696e636c7564652066726f6d203120746f2031303020746f6b656e60008301527f73000000000000000000000000000000000000000000000000000000000000006020830152604082019050919050565b6000617260603883618862565b91507f426164676520546f6b656e20526172697479206d757374732062652066726f6d60008301527f2042524f4e5a4520746f20424c41434b5f4449414d4f4e4400000000000000006020830152604082019050919050565b60006172c6601c83618862565b91507f54686520746f6b656e206865616c7468206973206e6f74207a65726f000000006000830152602082019050919050565b6000617306602b83618862565b91507f455243373231456e756d657261626c653a206f776e657220696e646578206f7560008301527f74206f6620626f756e64730000000000000000000000000000000000000000006020830152604082019050919050565b600061736c601f83618862565b91507f5072696365206d7573742062652067726561746572207468616e207a65726f006000830152602082019050919050565b60006173ac603283618862565b91507f4552433732313a207472616e7366657220746f206e6f6e20455243373231526560008301527f63656976657220696d706c656d656e74657200000000000000000000000000006020830152604082019050919050565b6000617412602683618862565b91507f4f776e61626c653a206e6577206f776e657220697320746865207a65726f206160008301527f64647265737300000000000000000000000000000000000000000000000000006020830152604082019050919050565b6000617478601c83618862565b91507f4552433732313a20746f6b656e20616c7265616479206d696e746564000000006000830152602082019050919050565b60006174b8602483618862565b91507f4552433732313a207472616e7366657220746f20746865207a65726f2061646460008301527f72657373000000000000000000000000000000000000000000000000000000006020830152604082019050919050565b600061751e601983618862565b91507f4552433732313a20617070726f766520746f2063616c6c6572000000000000006000830152602082019050919050565b600061755e602283618862565b91507f54686520746f6b656e206865616c74682063616e6e6f7420626520757064617460008301527f65640000000000000000000000000000000000000000000000000000000000006020830152604082019050919050565b60006175c4602c83618862565b91507f4552433732313a206f70657261746f7220717565727920666f72206e6f6e657860008301527f697374656e7420746f6b656e00000000000000000000000000000000000000006020830152604082019050919050565b600061762a603283618862565b91507f546f6b656e2046616374696f6e206d7573742062652066726f6d20535552564960008301527f564f525320746f20534349454e544953545300000000000000000000000000006020830152604082019050919050565b6000617690602783618862565b91507f426164676520546f6b656e2046616374696f6e206d75737420626520554e535060008301527f45434946494544000000000000000000000000000000000000000000000000006020830152604082019050919050565b60006176f6603883618862565b91507f4552433732313a20617070726f76652063616c6c6572206973206e6f74206f7760008301527f6e6572206e6f7220617070726f76656420666f7220616c6c00000000000000006020830152604082019050919050565b600061775c602a83618862565b91507f4552433732313a2062616c616e636520717565727920666f7220746865207a6560008301527f726f2061646472657373000000000000000000000000000000000000000000006020830152604082019050919050565b60006177c2602983618862565b91507f4552433732313a206f776e657220717565727920666f72206e6f6e657869737460008301527f656e7420746f6b656e00000000000000000000000000000000000000000000006020830152604082019050919050565b6000617828602583618862565b91507f546f6b656e206865616c7468206d7573742062652066726f6d207a65726f207460008301527f6f203130300000000000000000000000000000000000000000000000000000006020830152604082019050919050565b600061788e602283618862565b91507f54686520746f6b656e207374617475732063616e6e6f7420626520757064617460008301527f65640000000000000000000000000000000000000000000000000000000000006020830152604082019050919050565b60006178f4602083618862565b91507f4552433732313a206d696e7420746f20746865207a65726f20616464726573736000830152602082019050919050565b6000617934603183618862565b91507f546f6b656e20526172697479206d7573742062652066726f6d20434f4d4d4f4e60008301527f20746f20424c41434b5f4449414d4f4e440000000000000000000000000000006020830152604082019050919050565b600061799a603483618862565b91507f4e6f726d616c20546f6b656e20526172697479206d757374732062652066726f60008301527f6d20434f4d4d4f4e20746f204d5954484943414c0000000000000000000000006020830152604082019050919050565b6000617a00602c83618862565b91507f4552433732313a20617070726f76656420717565727920666f72206e6f6e657860008301527f697374656e7420746f6b656e00000000000000000000000000000000000000006020830152604082019050919050565b6000617a66602483618862565b91507f546865726520617265206e6f20656e6f75676820617661696c61626c6520746f60008301527f6b656e73000000000000000000000000000000000000000000000000000000006020830152604082019050919050565b6000617acc602083618862565b91507f4f776e61626c653a2063616c6c6572206973206e6f7420746865206f776e65726000830152602082019050919050565b6000617b0c602983618862565b91507f4552433732313a207472616e73666572206f6620746f6b656e2074686174206960008301527f73206e6f74206f776e00000000000000000000000000000000000000000000006020830152604082019050919050565b6000617b72604983618862565b91507f534349454e544953545320546f6b656e2043617465676f7279206d757374206260008301527f652066726f6d20564952555345535f424143544552494120746f20564952555360208301527f5f56415249414e545300000000000000000000000000000000000000000000006040830152606082019050919050565b6000617bfe602f83618862565b91507f4552433732314d657461646174613a2055524920717565727920666f72206e6f60008301527f6e6578697374656e7420746f6b656e00000000000000000000000000000000006020830152604082019050919050565b6000617c64602d83618862565b91507f546f6b656e2043617465676f7279206d7573742062652066726f6d205745415060008301527f4f4e5320746f20424144474553000000000000000000000000000000000000006020830152604082019050919050565b6000617cca601483618862565b91507f43726174654964206973206e6f742065786973740000000000000000000000006000830152602082019050919050565b6000617d0a602183618862565b91507f4552433732313a20617070726f76616c20746f2063757272656e74206f776e6560008301527f72000000000000000000000000000000000000000000000000000000000000006020830152604082019050919050565b6000617d70602283618862565b91507f4d75737420696e636c756465206174206c65617374206f6e652072617269746960008301527f65730000000000000000000000000000000000000000000000000000000000006020830152604082019050919050565b6000617dd6603183618862565b91507f4552433732313a207472616e736665722063616c6c6572206973206e6f74206f60008301527f776e6572206e6f7220617070726f7665640000000000000000000000000000006020830152604082019050919050565b6000617e3c602c83618862565b91507f455243373231456e756d657261626c653a20676c6f62616c20696e646578206f60008301527f7574206f6620626f756e647300000000000000000000000000000000000000006020830152604082019050919050565b6000617ea2602283618862565b91507f4d61726b6574706c6163652066656174757265206973206e6f7420656e61626c60008301527f65640000000000000000000000000000000000000000000000000000000000006020830152604082019050919050565b6000617f08601f83618862565b91507f5265656e7472616e637947756172643a207265656e7472616e742063616c6c006000830152602082019050919050565b6000617f48603b83618862565b91507f5355525649564f525320546f6b656e2043617465676f7279206d75737420626560008301527f2066726f6d20574541504f4e5320746f2041434345534f5249455300000000006020830152604082019050919050565b6000617fae602383618862565b91507f4d757374207261726974792066726f6d20434f4d4d4f4e20746f204d5954484960008301527f43414c00000000000000000000000000000000000000000000000000000000006020830152604082019050919050565b618010816189ef565b82525050565b61801f816189ef565b82525050565b618036618031826189ef565b618b22565b82525050565b6000618048828461717c565b915081905092915050565b600061805f828561717c565b915061806b828461717c565b91508190509392505050565b60006180838286618025565b602082019150618093828561704a565b6014820191506180a38284618025565b602082019150819050949350505050565b60006020820190506180c9600083018461703b565b92915050565b60006080820190506180e4600083018761703b565b6180f1602083018661703b565b6180fe6040830185618016565b818103606083015261811081846170ce565b905095945050505050565b600060208201905081810360008301526181358184617061565b905092915050565b600060208201905061815260008301846170bf565b92915050565b600060208201905081810360008301526181728184617143565b905092915050565b60006020820190508181036000830152618193816171ad565b9050919050565b600060208201905081810360008301526181b3816171ed565b9050919050565b600060208201905081810360008301526181d381617253565b9050919050565b600060208201905081810360008301526181f3816172b9565b9050919050565b60006020820190508181036000830152618213816172f9565b9050919050565b600060208201905081810360008301526182338161735f565b9050919050565b600060208201905081810360008301526182538161739f565b9050919050565b6000602082019050818103600083015261827381617405565b9050919050565b600060208201905081810360008301526182938161746b565b9050919050565b600060208201905081810360008301526182b3816174ab565b9050919050565b600060208201905081810360008301526182d381617511565b9050919050565b600060208201905081810360008301526182f381617551565b9050919050565b60006020820190508181036000830152618313816175b7565b9050919050565b600060208201905081810360008301526183338161761d565b9050919050565b6000602082019050818103600083015261835381617683565b9050919050565b60006020820190508181036000830152618373816176e9565b9050919050565b600060208201905081810360008301526183938161774f565b9050919050565b600060208201905081810360008301526183b3816177b5565b9050919050565b600060208201905081810360008301526183d38161781b565b9050919050565b600060208201905081810360008301526183f381617881565b9050919050565b60006020820190508181036000830152618413816178e7565b9050919050565b6000602082019050818103600083015261843381617927565b9050919050565b600060208201905081810360008301526184538161798d565b9050919050565b60006020820190508181036000830152618473816179f3565b9050919050565b6000602082019050818103600083015261849381617a59565b9050919050565b600060208201905081810360008301526184b381617abf565b9050919050565b600060208201905081810360008301526184d381617aff565b9050919050565b600060208201905081810360008301526184f381617b65565b9050919050565b6000602082019050818103600083015261851381617bf1565b9050919050565b6000602082019050818103600083015261853381617c57565b9050919050565b6000602082019050818103600083015261855381617cbd565b9050919050565b6000602082019050818103600083015261857381617cfd565b9050919050565b6000602082019050818103600083015261859381617d63565b9050919050565b600060208201905081810360008301526185b381617dc9565b9050919050565b600060208201905081810360008301526185d381617e2f565b9050919050565b600060208201905081810360008301526185f381617e95565b9050919050565b6000602082019050818103600083015261861381617efb565b9050919050565b6000602082019050818103600083015261863381617f3b565b9050919050565b6000602082019050818103600083015261865381617fa1565b9050919050565b600060208201905061866f6000830184618016565b92915050565b600060c08201905061868a6000830189618016565b6186976020830188618016565b6186a46040830187618016565b6186b16060830186617116565b6186be6080830185618016565b6186cb60a08301846170bf565b979650505050505050565b600060e0820190506186eb600083018a618016565b6186f86020830189618016565b6187056040830188618016565b6187126060830187617134565b61871f6080830186617116565b61872c60a0830185617107565b61873960c0830184617125565b98975050505050505050565b6000604051905081810181811067ffffffffffffffff8211171561876c5761876b618c19565b5b8060405250919050565b600067ffffffffffffffff82111561879157618790618c19565b5b602082029050602081019050919050565b600067ffffffffffffffff8211156187bd576187bc618c19565b5b601f19601f8301169050602081019050919050565b600067ffffffffffffffff8211156187ed576187ec618c19565b5b601f19601f8301169050602081019050919050565b6000819050602082019050919050565b600081519050919050565b600081519050919050565b600081519050919050565b6000602082019050919050565b600082825260208201905092915050565b600082825260208201905092915050565b600082825260208201905092915050565b600081905092915050565b6000618889826189ef565b9150618894836189ef565b9250827fffffffffffffffffffffffffffffffffffffffffffffffffffffffffffffffff038211156188c9576188c8618b5d565b5b828201905092915050565b60006188df826189ef565b91506188ea836189ef565b9250826188fa576188f9618b8c565b5b828204905092915050565b6000618910826189ef565b915061891b836189ef565b92508282101561892e5761892d618b5d565b5b828203905092915050565b6000618944826189cf565b9050919050565b60008115159050919050565b60007fffffffff0000000000000000000000000000000000000000000000000000000082169050919050565b600081905061899182618c72565b919050565b60008190506189a482618c86565b919050565b60008190506189b782618c9a565b919050565b60008190506189ca82618cae565b919050565b600073ffffffffffffffffffffffffffffffffffffffff82169050919050565b6000819050919050565b6000618a0482618983565b9050919050565b6000618a1682618996565b9050919050565b6000618a28826189a9565b9050919050565b6000618a3a826189bc565b9050919050565b82818337600083830152505050565b60005b83811015618a6e578082015181840152602081019050618a53565b83811115618a7d576000848401525b50505050565b60006002820490506001821680618a9b57607f821691505b60208210811415618aaf57618aae618bea565b5b50919050565b6000618ac0826189ef565b91507fffffffffffffffffffffffffffffffffffffffffffffffffffffffffffffffff821415618af357618af2618b5d565b5b600182019050919050565b6000618b0982618b10565b9050919050565b6000618b1b82618c59565b9050919050565b6000819050919050565b6000618b37826189ef565b9150618b42836189ef565b925082618b5257618b51618b8c565b5b828206905092915050565b7f4e487b7100000000000000000000000000000000000000000000000000000000600052601160045260246000fd5b7f4e487b7100000000000000000000000000000000000000000000000000000000600052601260045260246000fd5b7f4e487b7100000000000000000000000000000000000000000000000000000000600052602160045260246000fd5b7f4e487b7100000000000000000000000000000000000000000000000000000000600052602260045260246000fd5b7f4e487b7100000000000000000000000000000000000000000000000000000000600052604160045260246000fd5b6000601f19601f8301169050919050565b60006c0100000000000000000000000082029050919050565b60088110618c8357618c82618bbb565b5b50565b60048110618c9757618c96618bbb565b5b50565b600d8110618cab57618caa618bbb565b5b50565b60058110618cbf57618cbe618bbb565b5b50565b618ccb81618939565b8114618cd657600080fd5b50565b618ce28161894b565b8114618ced57600080fd5b50565b618cf981618957565b8114618d0457600080fd5b50565b618d10816189ef565b8114618d1b57600080fd5b5056fea264697066735822122083672da3f2eb8ca4a4aa6312e3940f86bb606997a6a10e81abd0050050cb22d764736f6c63430008000033",
  "immutableReferences": {},
  "source": "// contracts/UmblNFT.sol\r\n// SPDX-License-Identifier: MIT\r\npragma solidity ^0.8.0;\r\n\r\nimport \"./ERC721.sol\";\r\nimport \"./ERC721Enumerable.sol\";\r\nimport \"./Ownable.sol\";\r\nimport \"./ReentrancyGuard.sol\";\r\nimport \"./ERC165.sol\";\r\nimport \"./Strings.sol\";\r\nimport \"./Ownable.sol\";\r\nimport \"./SafeMath.sol\";\r\n\r\ncontract UmblNFT is ERC721, ERC721Enumerable, Ownable, ReentrancyGuard {    \r\n    using SafeMath for uint8;\r\n    using SafeMath for uint256;\r\n    using Strings for string;\r\n\r\n    uint public constant MAX_MINT_TOKEN_COUNT = 100000;\r\n    uint public constant MAX_CRATE_TOKEN_COUNT = 100;\r\n\r\n    enum TokenFaction {\r\n        NEVER_USED,\r\n        SURVIVORS,\r\n        SCIENTISTS,\r\n        UNSPECIFIED\r\n    }\r\n\r\n    enum TokenStatus { \r\n        NEVER_USED,\r\n        MINTED,\r\n        OWNED, \r\n        EQUIPPED,\r\n        STAKED \r\n    }\r\n\r\n    enum TokenCategory {\r\n        NEVER_USED,\r\n        WEAPONS,\r\n        ARMOR,\r\n        ACCESORIES,\r\n        VIRUSES_BACTERIA,\r\n        PARASITES_FUNGUS,\r\n        VIRUS_VARIANTS,\r\n        BADGES\r\n    }\r\n\r\n    enum TokenRarity {\r\n        NEVER_USED,\r\n        COMMON,\r\n        UNCOMMON,\r\n        UNIQUE,\r\n        RARE,\r\n        EPIC,\r\n        LEGENDARY,\r\n        MYTHICAL,\r\n        BRONZE,\r\n        SILVER,\r\n        GOLD,\r\n        DIAMOND,\r\n        BLACK_DIAMOND\r\n    }\r\n\r\n    // token data structure    \r\n    struct UmblData {\r\n        uint256 id;\r\n        uint256 price;\r\n        uint256 health;\r\n        TokenStatus status;\r\n        TokenFaction faction;\r\n        TokenCategory category;\r\n        TokenRarity rarity;\r\n    }\r\n\r\n    struct UmblCrate {\r\n        uint256 id;         \r\n        uint256 tokenCount;        \r\n        uint256 price;\r\n        TokenFaction faction;\r\n        uint256 level;        \r\n        TokenRarity[] rarities;     \r\n        bool isDeleted;\r\n    }\r\n\r\n    // Flag for sale feature enable/disable\r\n    bool public isEnabledSale = false;\r\n\r\n    // map token id to umbl data\r\n    mapping(uint256 => UmblData) public tokenUmblData;\r\n\r\n    // map token id to umbl data\r\n    mapping(uint256 => UmblCrate) public crateUmblData;\r\n\r\n    // array for umbl crates\r\n    // UmblCrate[] public crateUmblData;\r\n\r\n    string private _baseTokenURI;\r\n\r\n    uint public nextTokenId = 0;\r\n    uint public nextCrateId = 0;\r\n\r\n    // initialize contract while deployment with contract's token name and symbol\r\n    constructor(string memory baseURI) ERC721(\"Umbl NFT\", \"UMBL\") {\r\n        setBaseURI(baseURI);\r\n    }  \r\n\r\n    /*\r\n    * Get the tokens owned by _owner\r\n    */\r\n    function tokensOfOwner(address _owner) \r\n        external \r\n        view \r\n        returns(uint256[] memory) \r\n    {\r\n        uint256 tokenCount = balanceOf(_owner);\r\n\r\n        if (tokenCount == 0) {\r\n            return new uint256[](0);\r\n        } else {\r\n            uint256[] memory result = new uint256[](tokenCount);\r\n            uint256 index;\r\n            for (index = 0; index < tokenCount; index++) {\r\n                result[index] = tokenOfOwnerByIndex(_owner, index);\r\n            }\r\n            return result;\r\n        }\r\n    }\r\n\r\n    // Mint multiple tokens\r\n    function mintToken(uint256 _numTokens, uint256 _faction, uint256 _category, uint256 _rarity, uint256 _price) \r\n        public \r\n        onlyOwner \r\n        nonReentrant\r\n    {\r\n        require(_numTokens > 0 && _numTokens <= MAX_MINT_TOKEN_COUNT, \"Must mint from 1 to 100000 NFTs\");\r\n        require(_category >= uint256(TokenCategory.WEAPONS) && _category <= uint256(TokenCategory.BADGES), \"Token Category must be from WEAPONS to BADGES\");\r\n        require(_rarity >= uint256(TokenRarity.COMMON) && _rarity <= uint256(TokenRarity.BLACK_DIAMOND), \"Token Rarity must be from COMMON to BLACK_DIAMOND\");\r\n\r\n        if(_category != uint256(TokenCategory.BADGES)) {\r\n            require(_faction >= uint256(TokenFaction.SURVIVORS) && _faction <= uint256(TokenFaction.SCIENTISTS), \"Token Faction must be from SURVIVORS to SCIENTISTS\");\r\n            require(_rarity >= uint256(TokenRarity.COMMON) && _rarity <= uint256(TokenRarity.MYTHICAL), \"Normal Token Rarity musts be from COMMON to MYTHICAL\");\r\n        } else {\r\n            require(_faction == uint256(TokenFaction.UNSPECIFIED), \"Badge Token Faction must be UNSPECIFIED\");\r\n            require(_rarity >= uint256(TokenRarity.BRONZE) && _rarity <= uint256(TokenRarity.BLACK_DIAMOND), \"Badge Token Rarity musts be from BRONZE to BLACK_DIAMOND\");\r\n        }\r\n\r\n        if(_faction == uint256(TokenFaction.SURVIVORS)) {\r\n            require(_category >= uint256(TokenCategory.WEAPONS) && _category <= uint256(TokenCategory.ACCESORIES), \"SURVIVORS Token Category must be from WEAPONS to ACCESORIES\");\r\n        } else if(_faction == uint256(TokenFaction.SCIENTISTS)) {\r\n            require(_category >= uint256(TokenCategory.VIRUSES_BACTERIA) && _category <= uint256(TokenCategory.VIRUS_VARIANTS), \"SCIENTISTS Token Category must be from VIRUSES_BACTERIA to VIRUS_VARIANTS\");\r\n        }\r\n\r\n        require(_price > 0, \"Price must be greater than zero\");\r\n\r\n        // mint all of these tokens\r\n        for(uint i=0; i<_numTokens; i++) {\r\n            // increase next token ID\r\n            nextTokenId++;\r\n\r\n            // mint token\r\n            _safeMint(owner(), nextTokenId);\r\n\r\n            // create a new token struct and pass it new values\r\n            UmblData memory newUmblData = UmblData(\r\n                nextTokenId,\r\n                _price,\r\n                100,\r\n                TokenStatus.MINTED,\r\n                TokenFaction(_faction),\r\n                TokenCategory(_category),\r\n                TokenRarity(_rarity)\r\n            );\r\n\r\n            // add the token id and it's struct to all tokens mapping\r\n            tokenUmblData[nextTokenId] = newUmblData;\r\n        }\r\n    }\r\n\r\n    // Add & Update crates\r\n    function applyCrate(uint256 _crateId, uint256 _numTokens, uint256 _faction, uint256 _level, uint256[] memory _rarities, uint256 _price) \r\n        public\r\n        onlyOwner\r\n        nonReentrant\r\n    {\r\n        require(_numTokens > 0 && _numTokens <= MAX_CRATE_TOKEN_COUNT, \"Must include from 1 to 100 tokens\");\r\n        require(_price > 0, \"Price must be greater than zero\");        \r\n        require(_faction >= uint256(TokenFaction.SURVIVORS) && _faction <= uint256(TokenFaction.SCIENTISTS), \"Token Faction must be from SURVIVORS to SCIENTISTS\");\r\n        require(_rarities.length > 0, \"Must include at least one rarities\");\r\n        for(uint i=0; i<_rarities.length; i++)\r\n            require(_rarities[i] >= uint256(TokenRarity.COMMON) && _rarities[i] <= uint256(TokenRarity.MYTHICAL), \"Must rarity from COMMON to MYTHICAL\");        \r\n        \r\n        uint currentCrateId;\r\n\r\n        if(_crateId != 0) { // Update\r\n            require(_crateId <= nextCrateId, \"CrateId is not exist\");\r\n            currentCrateId = _crateId;\r\n        } else { // Add\r\n            nextCrateId++;\r\n            currentCrateId = nextCrateId;\r\n        }        \r\n\r\n        UmblCrate memory newCrateData = UmblCrate(\r\n            currentCrateId,\r\n            _numTokens,\r\n            _price,\r\n            TokenFaction(_faction),\r\n            _level,\r\n            new TokenRarity[](0),            \r\n            false            \r\n        );\r\n\r\n        // link the struct to all crates mapping\r\n        crateUmblData[currentCrateId] = newCrateData;\r\n\r\n        // add rarities to that mapping item\r\n        for(uint i=0; i<_rarities.length; i++) {\r\n            crateUmblData[currentCrateId].rarities.push(TokenRarity(_rarities[i]));\r\n        }\r\n    }\r\n\r\n    function getCrateRarities(uint256 _index) \r\n        public \r\n        view \r\n        returns (uint256[] memory)\r\n    {\r\n        require(_index <= nextCrateId, \"CrateId is not exist\");\r\n\r\n        uint256[] memory result = new uint256[](crateUmblData[_index].rarities.length);\r\n\r\n        for(uint i=0; i<crateUmblData[_index].rarities.length; i++) {\r\n            result[i] = uint256(crateUmblData[_index].rarities[i]);\r\n        }\r\n\r\n        return result;\r\n    }\r\n\r\n    // Enable token isEquipped flag, lock it on saleso that lock it on sale\r\n    function setTokenStatus(uint256 _tokenId, uint256 _tokenStatus) \r\n        public payable\r\n    {\r\n        // require that token should exist\r\n        require(_exists(_tokenId));\r\n\r\n        // check current call is same with the token's owner\r\n        require(ownerOf(_tokenId) == msg.sender);\r\n\r\n        // get the token from all UmblData mapping and create a memory of it as defined\r\n        UmblData memory umblData = tokenUmblData[_tokenId];\r\n\r\n        require(umblData.status != TokenStatus.NEVER_USED && umblData.status != TokenStatus.MINTED, \"The token status cannot be updated\") ;\r\n\r\n        // check current token status is not same with parameter        \r\n        require(umblData.status != TokenStatus(_tokenStatus));\r\n\r\n        if(_tokenStatus == uint256(TokenStatus.STAKED)) {\r\n            require(umblData.health == 0, \"The token health is not zero\");\r\n        }\r\n\r\n        // check tokenstatus value is on available range\r\n        require(TokenStatus(_tokenStatus) >= TokenStatus.OWNED && TokenStatus(_tokenStatus) <= TokenStatus.STAKED);        \r\n\r\n        // update the token's forSale to false\r\n        umblData.status = TokenStatus(_tokenStatus);\r\n\r\n        // set and update that token in the mapping\r\n        tokenUmblData[_tokenId] = umblData;\r\n    }\r\n\r\n    // Update token health value\r\n    function setTokenHealth(uint256 _tokenId, uint256 _tokenHealth) \r\n        public payable\r\n    {\r\n        // require that token should exist\r\n        require(_exists(_tokenId));\r\n\r\n        // check current call is same with the token's owner\r\n        require(ownerOf(_tokenId) == msg.sender);\r\n\r\n        // get the token from all UmblData mapping and create a memory of it as defined\r\n        UmblData memory umblData = tokenUmblData[_tokenId];\r\n\r\n        require(umblData.status != TokenStatus.NEVER_USED && umblData.status != TokenStatus.MINTED, \"The token health cannot be updated\");\r\n\r\n        require(umblData.health != _tokenHealth);\r\n\r\n        // check current token status is not same with parameter        \r\n        require(_tokenHealth >= 0 && _tokenHealth <= 100, \"Token health must be from zero to 100\");\r\n\r\n        // update the token's forSale to false\r\n        umblData.health = _tokenHealth;\r\n\r\n        // set and update that token in the mapping\r\n        tokenUmblData[_tokenId] = umblData;\r\n    }\r\n\r\n    // by a crate\r\n    function buyCrate(uint256 _crateId)\r\n        public payable\r\n    {\r\n        // check if the function caller is not an zero address account\r\n        require(msg.sender != address(0));\r\n\r\n        // check caller is not owner of the contract\r\n        require(msg.sender != owner());\r\n\r\n        // check _crateId\r\n        require(_crateId <= nextCrateId, \"CrateId is not exist\");\r\n        \r\n        UmblCrate memory crateData = crateUmblData[_crateId];\r\n\r\n        // price sent in to buy should be equal to or more than the crate's price\r\n        require(msg.value >= crateData.price);\r\n\r\n        // check available token count\r\n        uint availableTokenCount = 0;\r\n        for(uint i=0; i<crateData.rarities.length; i++) {\r\n            for(uint j=1; j<=nextTokenId; j++) {   \r\n                if(tokenUmblData[j].status == TokenStatus.MINTED && tokenUmblData[j].rarity == crateData.rarities[i] && tokenUmblData[j].faction == crateData.faction) {\r\n                    availableTokenCount++;\r\n                }\r\n            }\r\n        }\r\n\r\n        require(availableTokenCount >= crateData.tokenCount, \"There are no enough available tokens\");\r\n\r\n        uint[] memory availableTokens = new uint[](availableTokenCount);\r\n        uint availableTokenId = 0;\r\n        for(uint i=0; i<crateData.rarities.length; i++) {\r\n            for(uint j=1; j<=nextTokenId; j++) {   \r\n                if(tokenUmblData[j].status == TokenStatus.MINTED && tokenUmblData[j].rarity == crateData.rarities[i] && tokenUmblData[j].faction == crateData.faction) {\r\n                    availableTokens[availableTokenId++] = j;\r\n                }\r\n            }\r\n        }\r\n\r\n        // Get random tokens for the crate\r\n        uint[] memory selectedTokens = new uint[](crateData.tokenCount);\r\n        uint selectedTokenId = 0;\r\n        uint nonce = 1;\r\n\r\n        for(uint i=0; i<crateData.tokenCount; i++) {\r\n            while(true) {\r\n                uint randomNumber = uint(keccak256(abi.encodePacked(block.timestamp, msg.sender, nonce++))) % availableTokenCount;\r\n                bool existFlag = false;\r\n                for(uint j=0; j<selectedTokenId; j++) {\r\n                    if(!existFlag && randomNumber == selectedTokens[j]) {\r\n                        existFlag = true;\r\n                        break;\r\n                    }\r\n                }\r\n                if(!existFlag) {\r\n                    selectedTokens[selectedTokenId++] = randomNumber;\r\n                    break;\r\n                }\r\n            }            \r\n        }\r\n\r\n        for(uint i=0; i<crateData.tokenCount; i++) {\r\n            // get token id\r\n            uint tokenId = availableTokens[selectedTokens[i]];\r\n\r\n            // get owner address of the token\r\n            address tokenOwner = ownerOf(tokenId);\r\n\r\n            // transfer tokens to buyer\r\n            _transfer(tokenOwner, msg.sender, tokenId);\r\n\r\n            // update token status to OWNED\r\n            UmblData memory umblData = tokenUmblData[tokenId];\r\n\r\n            // update the token's forSale to false\r\n            umblData.status = TokenStatus.OWNED;\r\n\r\n            // set and update that token in the mapping\r\n            tokenUmblData[tokenId] = umblData;\r\n\r\n        }\r\n\r\n        address payable ownerAddress = payable(owner());\r\n\r\n        // send price to the owner\r\n        ownerAddress.transfer(msg.value);\r\n    }\r\n\r\n    // buy a token by passing in the token's id\r\n    function buyToken(uint256 _tokenId)\r\n        public payable\r\n    {        \r\n        require(isEnabledSale == true, \"Marketplace feature is not enabled\");\r\n\r\n        // check if the function caller is not an zero address account\r\n        require(msg.sender != address(0));\r\n\r\n        // check if the token id of the token being bought exists or not\r\n        require(_exists(_tokenId));\r\n\r\n        // get the token's owner\r\n        address tokenOwner = ownerOf(_tokenId);\r\n\r\n        // token's owner should not be an zero address account\r\n        require(tokenOwner != address(0));\r\n\r\n        // the one who wants to buy the token should not be the token's owner\r\n        require(tokenOwner != msg.sender);\r\n\r\n        // get the token from all UmblData mapping and create a memory of it as defined\r\n        UmblData memory umblData = tokenUmblData[_tokenId];\r\n\r\n        // price sent in to buy should be equal to or more than the token's price\r\n        require(msg.value >= umblData.price);\r\n\r\n        // token should be for sale\r\n        require(umblData.status == TokenStatus.OWNED);\r\n\r\n        // transfer the token from owner to the caller of the function (buyer)\r\n        _transfer(tokenOwner, msg.sender, _tokenId);\r\n\r\n        // get owner of the token\r\n        address payable sendTo = payable(tokenOwner);\r\n        address payable tokenOwnerAddress = payable(owner());\r\n\r\n        // get divided value of total token price\r\n        uint256 _priceToOwner = msg.value / 10;\r\n        uint256 _priceToSeller = msg.value - _priceToOwner;\r\n\r\n        // send 10% token's worth of bnb to the owner\r\n        tokenOwnerAddress.transfer(_priceToOwner);\r\n\r\n        // send 90% token's worth of bnb to the owner\r\n        sendTo.transfer(_priceToSeller);\r\n    }\r\n\r\n    // update token's price\r\n    function changeTokenPrice(uint256 _tokenId, uint256 _newPrice)\r\n        public payable\r\n    {\r\n        require(isEnabledSale == true, \"Marketplace feature is not enabled\");\r\n\r\n        // require that token should exist\r\n        require(_exists(_tokenId));\r\n\r\n        // check the token's owner should be equal to the caller of the function\r\n        require(ownerOf(_tokenId) == msg.sender);\r\n\r\n        // get the token's struct from mapping and create a memory of it\r\n        UmblData memory umblData = tokenUmblData[_tokenId];\r\n\r\n        // update the token's price with new price\r\n        umblData.price = _newPrice;\r\n\r\n        // set and update the token in the mapping\r\n        tokenUmblData[_tokenId] = umblData;\r\n    }\r\n\r\n    function _beforeTokenTransfer(address from, address to, uint256 tokenId)\r\n        internal\r\n        override(ERC721, ERC721Enumerable)\r\n    {\r\n        super._beforeTokenTransfer(from, to, tokenId);\r\n    }\r\n\r\n    function supportsInterface(bytes4 interfaceId)\r\n        public\r\n        view\r\n        override(ERC721, ERC721Enumerable)\r\n        returns (bool)\r\n    {\r\n        return super.supportsInterface(interfaceId);\r\n    } \r\n\r\n    function tokenURI(uint256 tokenId) \r\n        public \r\n        view \r\n        override(ERC721) \r\n        returns (string memory) \r\n    {\r\n        string memory _tokenURI = super.tokenURI(tokenId);\r\n        return bytes(_tokenURI).length > 0 ? string(abi.encodePacked(_tokenURI)) : \"\";\r\n    }      \r\n\r\n    function _setBaseURI(string memory baseURI) \r\n        internal \r\n        virtual \r\n    {\r\n        _baseTokenURI = baseURI;\r\n    }\r\n\r\n    function _baseURI() internal view override returns (string memory) {\r\n        return _baseTokenURI;\r\n    }\r\n\r\n    // Administrative zone\r\n    function setBaseURI(string memory baseURI) \r\n        public \r\n        onlyOwner \r\n    {\r\n        _setBaseURI(baseURI);\r\n    }\r\n\r\n    function startMarketPlace() \r\n        public \r\n        onlyOwner \r\n    {\r\n        isEnabledSale = true;\r\n    }\r\n\r\n    function pauseMarketPlace() \r\n        public \r\n        onlyOwner \r\n    {\r\n        isEnabledSale = false;\r\n    }\r\n\r\n    function deleteCrate(uint256 _index) \r\n        public\r\n        onlyOwner\r\n    {\r\n        require(_index <= nextCrateId);\r\n\r\n        crateUmblData[_index].isDeleted = true;\r\n    }\r\n}\r\n",
  "sourcePath": "E:/Projects/Umbrella/Backup/Umbl_NFT_Contract/contracts/UmblNFT.sol",
  "compiler": {
    "name": "solc",
    "version": "0.8.0+commit.c7dfd78e.Emscripten.clang"
  },
  "schemaVersion": "3.4.1",
  "updatedAt": "2021-09-24T15:47:45.776Z",
  "devdoc": {
    "kind": "dev",
    "methods": {
      "approve(address,uint256)": {
        "details": "See {IERC721-approve}."
      },
      "balanceOf(address)": {
        "details": "See {IERC721-balanceOf}."
      },
      "getApproved(uint256)": {
        "details": "See {IERC721-getApproved}."
      },
      "isApprovedForAll(address,address)": {
        "details": "See {IERC721-isApprovedForAll}."
      },
      "name()": {
        "details": "See {IERC721Metadata-name}."
      },
      "owner()": {
        "details": "Returns the address of the current owner."
      },
      "ownerOf(uint256)": {
        "details": "See {IERC721-ownerOf}."
      },
      "renounceOwnership()": {
        "details": "Leaves the contract without owner. It will not be possible to call `onlyOwner` functions anymore. Can only be called by the current owner. NOTE: Renouncing ownership will leave the contract without an owner, thereby removing any functionality that is only available to the owner."
      },
      "safeTransferFrom(address,address,uint256)": {
        "details": "See {IERC721-safeTransferFrom}."
      },
      "safeTransferFrom(address,address,uint256,bytes)": {
        "details": "See {IERC721-safeTransferFrom}."
      },
      "setApprovalForAll(address,bool)": {
        "details": "See {IERC721-setApprovalForAll}."
      },
      "symbol()": {
        "details": "See {IERC721Metadata-symbol}."
      },
      "tokenByIndex(uint256)": {
        "details": "See {IERC721Enumerable-tokenByIndex}."
      },
      "tokenOfOwnerByIndex(address,uint256)": {
        "details": "See {IERC721Enumerable-tokenOfOwnerByIndex}."
      },
      "tokenURI(uint256)": {
        "details": "See {IERC721Metadata-tokenURI}."
      },
      "totalSupply()": {
        "details": "See {IERC721Enumerable-totalSupply}."
      },
      "transferFrom(address,address,uint256)": {
        "details": "See {IERC721-transferFrom}."
      },
      "transferOwnership(address)": {
        "details": "Transfers ownership of the contract to a new account (`newOwner`). Can only be called by the current owner."
      }
    },
    "version": 1
  },
  "userdoc": {
    "kind": "user",
    "methods": {},
    "version": 1
  }
}